{
  "contractName": "AssetMoreCoin",
  "abi": [
    {
      "inputs": [],
      "stateMutability": "nonpayable",
      "type": "constructor"
    },
    {
      "anonymous": false,
      "inputs": [
        {
          "indexed": true,
          "internalType": "address",
          "name": "owner",
          "type": "address"
        },
        {
          "indexed": true,
          "internalType": "address",
          "name": "spender",
          "type": "address"
        },
        {
          "indexed": false,
          "internalType": "uint256",
          "name": "value",
          "type": "uint256"
        }
      ],
      "name": "Approval",
      "type": "event"
    },
    {
      "anonymous": false,
      "inputs": [
        {
          "indexed": true,
          "internalType": "address",
          "name": "previousOwner",
          "type": "address"
        },
        {
          "indexed": true,
          "internalType": "address",
          "name": "newOwner",
          "type": "address"
        }
      ],
      "name": "OwnershipTransferred",
      "type": "event"
    },
    {
      "anonymous": false,
      "inputs": [
        {
          "indexed": false,
          "internalType": "address",
          "name": "account",
          "type": "address"
        }
      ],
      "name": "Paused",
      "type": "event"
    },
    {
      "anonymous": false,
      "inputs": [
        {
          "indexed": true,
          "internalType": "address",
          "name": "from",
          "type": "address"
        },
        {
          "indexed": true,
          "internalType": "address",
          "name": "to",
          "type": "address"
        },
        {
          "indexed": false,
          "internalType": "uint256",
          "name": "value",
          "type": "uint256"
        }
      ],
      "name": "Transfer",
      "type": "event"
    },
    {
      "anonymous": false,
      "inputs": [
        {
          "indexed": false,
          "internalType": "address",
          "name": "account",
          "type": "address"
        }
      ],
      "name": "Unpaused",
      "type": "event"
    },
    {
      "inputs": [
        {
          "internalType": "address",
          "name": "owner",
          "type": "address"
        },
        {
          "internalType": "address",
          "name": "spender",
          "type": "address"
        }
      ],
      "name": "allowance",
      "outputs": [
        {
          "internalType": "uint256",
          "name": "",
          "type": "uint256"
        }
      ],
      "stateMutability": "view",
      "type": "function"
    },
    {
      "inputs": [
        {
          "internalType": "address",
          "name": "spender",
          "type": "address"
        },
        {
          "internalType": "uint256",
          "name": "amount",
          "type": "uint256"
        }
      ],
      "name": "approve",
      "outputs": [
        {
          "internalType": "bool",
          "name": "",
          "type": "bool"
        }
      ],
      "stateMutability": "nonpayable",
      "type": "function"
    },
    {
      "inputs": [
        {
          "internalType": "address",
          "name": "account",
          "type": "address"
        }
      ],
      "name": "balanceOf",
      "outputs": [
        {
          "internalType": "uint256",
          "name": "",
          "type": "uint256"
        }
      ],
      "stateMutability": "view",
      "type": "function"
    },
    {
      "inputs": [
        {
          "internalType": "uint256",
          "name": "amount",
          "type": "uint256"
        }
      ],
      "name": "burn",
      "outputs": [],
      "stateMutability": "nonpayable",
      "type": "function"
    },
    {
      "inputs": [
        {
          "internalType": "address",
          "name": "account",
          "type": "address"
        },
        {
          "internalType": "uint256",
          "name": "amount",
          "type": "uint256"
        }
      ],
      "name": "burnFrom",
      "outputs": [],
      "stateMutability": "nonpayable",
      "type": "function"
    },
    {
      "inputs": [],
      "name": "decimals",
      "outputs": [
        {
          "internalType": "uint8",
          "name": "",
          "type": "uint8"
        }
      ],
      "stateMutability": "view",
      "type": "function"
    },
    {
      "inputs": [
        {
          "internalType": "address",
          "name": "spender",
          "type": "address"
        },
        {
          "internalType": "uint256",
          "name": "subtractedValue",
          "type": "uint256"
        }
      ],
      "name": "decreaseAllowance",
      "outputs": [
        {
          "internalType": "bool",
          "name": "",
          "type": "bool"
        }
      ],
      "stateMutability": "nonpayable",
      "type": "function"
    },
    {
      "inputs": [
        {
          "internalType": "address",
          "name": "spender",
          "type": "address"
        },
        {
          "internalType": "uint256",
          "name": "addedValue",
          "type": "uint256"
        }
      ],
      "name": "increaseAllowance",
      "outputs": [
        {
          "internalType": "bool",
          "name": "",
          "type": "bool"
        }
      ],
      "stateMutability": "nonpayable",
      "type": "function"
    },
    {
      "inputs": [],
      "name": "name",
      "outputs": [
        {
          "internalType": "string",
          "name": "",
          "type": "string"
        }
      ],
      "stateMutability": "view",
      "type": "function"
    },
    {
      "inputs": [],
      "name": "owner",
      "outputs": [
        {
          "internalType": "address",
          "name": "",
          "type": "address"
        }
      ],
      "stateMutability": "view",
      "type": "function"
    },
    {
      "inputs": [],
      "name": "paused",
      "outputs": [
        {
          "internalType": "bool",
          "name": "",
          "type": "bool"
        }
      ],
      "stateMutability": "view",
      "type": "function"
    },
    {
      "inputs": [],
      "name": "renounceOwnership",
      "outputs": [],
      "stateMutability": "nonpayable",
      "type": "function"
    },
    {
      "inputs": [],
      "name": "symbol",
      "outputs": [
        {
          "internalType": "string",
          "name": "",
          "type": "string"
        }
      ],
      "stateMutability": "view",
      "type": "function"
    },
    {
      "inputs": [],
      "name": "totalSupply",
      "outputs": [
        {
          "internalType": "uint256",
          "name": "",
          "type": "uint256"
        }
      ],
      "stateMutability": "view",
      "type": "function"
    },
    {
      "inputs": [
        {
          "internalType": "address",
          "name": "to",
          "type": "address"
        },
        {
          "internalType": "uint256",
          "name": "amount",
          "type": "uint256"
        }
      ],
      "name": "transfer",
      "outputs": [
        {
          "internalType": "bool",
          "name": "",
          "type": "bool"
        }
      ],
      "stateMutability": "nonpayable",
      "type": "function"
    },
    {
      "inputs": [
        {
          "internalType": "address",
          "name": "from",
          "type": "address"
        },
        {
          "internalType": "address",
          "name": "to",
          "type": "address"
        },
        {
          "internalType": "uint256",
          "name": "amount",
          "type": "uint256"
        }
      ],
      "name": "transferFrom",
      "outputs": [
        {
          "internalType": "bool",
          "name": "",
          "type": "bool"
        }
      ],
      "stateMutability": "nonpayable",
      "type": "function"
    },
    {
      "inputs": [
        {
          "internalType": "address",
          "name": "newOwner",
          "type": "address"
        }
      ],
      "name": "transferOwnership",
      "outputs": [],
      "stateMutability": "nonpayable",
      "type": "function"
    },
    {
      "inputs": [],
      "name": "pause",
      "outputs": [],
      "stateMutability": "nonpayable",
      "type": "function"
    },
    {
      "inputs": [
        {
          "internalType": "address",
          "name": "land_addr",
          "type": "address"
        }
      ],
      "name": "setAddress",
      "outputs": [],
      "stateMutability": "nonpayable",
      "type": "function"
    },
    {
      "inputs": [],
      "name": "getAddress",
      "outputs": [
        {
          "internalType": "address",
          "name": "",
          "type": "address"
        }
      ],
      "stateMutability": "nonpayable",
      "type": "function"
    },
    {
      "inputs": [],
      "name": "unpause",
      "outputs": [],
      "stateMutability": "nonpayable",
      "type": "function"
    },
    {
      "inputs": [
        {
          "internalType": "address",
          "name": "to",
          "type": "address"
        },
        {
          "internalType": "uint256",
          "name": "amount",
          "type": "uint256"
        }
      ],
      "name": "mint",
      "outputs": [],
      "stateMutability": "nonpayable",
      "type": "function"
    },
    {
      "inputs": [
        {
          "internalType": "address",
          "name": "to",
          "type": "address"
        },
        {
          "internalType": "string",
          "name": "lduri",
          "type": "string"
        },
        {
          "internalType": "uint256",
          "name": "area",
          "type": "uint256"
        }
      ],
      "name": "addLand",
      "outputs": [],
      "stateMutability": "nonpayable",
      "type": "function"
    },
    {
      "inputs": [
        {
          "internalType": "address",
          "name": "from",
          "type": "address"
        },
        {
          "internalType": "uint256",
          "name": "ldid",
          "type": "uint256"
        }
      ],
      "name": "removeLand",
      "outputs": [],
      "stateMutability": "nonpayable",
      "type": "function"
    },
    {
      "inputs": [
        {
          "internalType": "address",
          "name": "from",
          "type": "address"
        }
      ],
      "name": "listLand",
      "outputs": [],
      "stateMutability": "nonpayable",
      "type": "function"
    },
    {
      "inputs": [
        {
          "internalType": "address",
          "name": "from",
          "type": "address"
        },
        {
          "internalType": "uint256",
          "name": "ldid",
          "type": "uint256"
        },
        {
          "internalType": "uint256",
          "name": "newarea",
          "type": "uint256"
        }
      ],
      "name": "splitLand",
      "outputs": [],
      "stateMutability": "nonpayable",
      "type": "function"
    },
    {
      "inputs": [
        {
          "internalType": "address",
          "name": "seller",
          "type": "address"
        },
        {
          "internalType": "address",
          "name": "buyer",
          "type": "address"
        },
        {
          "internalType": "uint256",
          "name": "amount",
          "type": "uint256"
        },
        {
          "internalType": "uint256",
          "name": "ldid",
          "type": "uint256"
        },
        {
          "internalType": "uint256",
          "name": "ld_amount",
          "type": "uint256"
        }
      ],
      "name": "transferLand",
      "outputs": [],
      "stateMutability": "nonpayable",
      "type": "function"
    },
    {
      "inputs": [
        {
          "internalType": "address",
          "name": "to",
          "type": "address"
        },
        {
          "internalType": "uint256",
          "name": "amount",
          "type": "uint256"
        }
      ],
      "name": "bridgeIn1",
      "outputs": [],
      "stateMutability": "payable",
      "type": "function"
    },
    {
      "inputs": [],
      "name": "bridgeIn",
      "outputs": [],
      "stateMutability": "payable",
      "type": "function"
    },
    {
      "inputs": [
        {
          "internalType": "contract IERC20",
          "name": "token",
          "type": "address"
        },
        {
          "internalType": "address",
          "name": "from",
          "type": "address"
        },
        {
          "internalType": "uint256",
          "name": "amount",
          "type": "uint256"
        }
      ],
      "name": "bridgeOut",
      "outputs": [],
      "stateMutability": "nonpayable",
      "type": "function"
    },
    {
      "inputs": [
        {
          "internalType": "uint256",
          "name": "amount",
          "type": "uint256"
        }
      ],
      "name": "mintCoin",
      "outputs": [],
      "stateMutability": "nonpayable",
      "type": "function"
    },
    {
      "inputs": [
        {
          "internalType": "address",
          "name": "to",
          "type": "address"
        },
        {
          "internalType": "uint256",
          "name": "amount",
          "type": "uint256"
        },
        {
          "internalType": "uint256",
          "name": "toCoin",
          "type": "uint256"
        }
      ],
      "name": "swapIn",
      "outputs": [],
      "stateMutability": "nonpayable",
      "type": "function"
    },
    {
      "inputs": [
        {
          "internalType": "address",
          "name": "from",
          "type": "address"
        },
        {
          "internalType": "uint256",
          "name": "Coin",
          "type": "uint256"
        },
        {
          "internalType": "uint256",
          "name": "toAmount",
          "type": "uint256"
        }
      ],
      "name": "swapOut",
      "outputs": [],
      "stateMutability": "nonpayable",
      "type": "function"
    },
    {
      "inputs": [
        {
          "internalType": "address",
          "name": "to",
          "type": "address"
        },
        {
          "internalType": "uint256",
          "name": "amount",
          "type": "uint256"
        }
      ],
      "name": "deposit",
      "outputs": [],
      "stateMutability": "nonpayable",
      "type": "function"
    },
    {
      "inputs": [
        {
          "internalType": "address",
          "name": "from",
          "type": "address"
        },
        {
          "internalType": "uint256",
          "name": "amount",
          "type": "uint256"
        }
      ],
      "name": "withdraw",
      "outputs": [],
      "stateMutability": "nonpayable",
      "type": "function"
    }
  ],
  "bytecode": "0x60806040523480156200001157600080fd5b506040518060400160405280600d81526020017f41737365744d6f7265436f696e000000000000000000000000000000000000008152506040518060400160405280600381526020017f414d43000000000000000000000000000000000000000000000000000000000081525081600390805190602001906200009692919062000413565b508060049080519060200190620000af92919062000413565b5050506000600560006101000a81548160ff021916908315150217905550620000ed620000e16200013360201b60201c565b6200013b60201b60201c565b6200012d33620001026200020160201b60201c565b600a6200011091906200065d565b6301312d00620001219190620006ae565b6200020a60201b60201c565b620008f3565b600033905090565b6000600560019054906101000a900473ffffffffffffffffffffffffffffffffffffffff16905081600560016101000a81548173ffffffffffffffffffffffffffffffffffffffff021916908373ffffffffffffffffffffffffffffffffffffffff1602179055508173ffffffffffffffffffffffffffffffffffffffff168173ffffffffffffffffffffffffffffffffffffffff167f8be0079c531659141344cd1fd0a4f28419497f9722a3daafe3b4186f6b6457e060405160405180910390a35050565b60006012905090565b600073ffffffffffffffffffffffffffffffffffffffff168273ffffffffffffffffffffffffffffffffffffffff16036200027c576040517f08c379a0000000000000000000000000000000000000000000000000000000008152600401620002739062000770565b60405180910390fd5b62000290600083836200038260201b60201c565b8060026000828254620002a4919062000792565b92505081905550806000808473ffffffffffffffffffffffffffffffffffffffff1673ffffffffffffffffffffffffffffffffffffffff1681526020019081526020016000206000828254620002fb919062000792565b925050819055508173ffffffffffffffffffffffffffffffffffffffff16600073ffffffffffffffffffffffffffffffffffffffff167fddf252ad1be2c89b69c2b068fc378daa952ba7f163c4a11628f55a4df523b3ef8360405162000362919062000800565b60405180910390a36200037e60008383620003f260201b60201c565b5050565b62000392620003f760201b60201c565b15620003d5576040517f08c379a0000000000000000000000000000000000000000000000000000000008152600401620003cc906200086d565b60405180910390fd5b620003ed8383836200040e60201b62000ff01760201c565b505050565b505050565b6000600560009054906101000a900460ff16905090565b505050565b8280546200042190620008be565b90600052602060002090601f01602090048101928262000445576000855562000491565b82601f106200046057805160ff191683800117855562000491565b8280016001018555821562000491579182015b828111156200049057825182559160200191906001019062000473565b5b509050620004a09190620004a4565b5090565b5b80821115620004bf576000816000905550600101620004a5565b5090565b7f4e487b7100000000000000000000000000000000000000000000000000000000600052601160045260246000fd5b60008160011c9050919050565b6000808291508390505b60018511156200055157808604811115620005295762000528620004c3565b5b6001851615620005395780820291505b80810290506200054985620004f2565b945062000509565b94509492505050565b6000826200056c57600190506200063f565b816200057c57600090506200063f565b8160018114620005955760028114620005a057620005d6565b60019150506200063f565b60ff841115620005b557620005b4620004c3565b5b8360020a915084821115620005cf57620005ce620004c3565b5b506200063f565b5060208310610133831016604e8410600b8410161715620006105782820a9050838111156200060a5762000609620004c3565b5b6200063f565b6200061f8484846001620004ff565b92509050818404811115620006395762000638620004c3565b5b81810290505b9392505050565b6000819050919050565b600060ff82169050919050565b60006200066a8262000646565b9150620006778362000650565b9250620006a67fffffffffffffffffffffffffffffffffffffffffffffffffffffffffffffffff84846200055a565b905092915050565b6000620006bb8262000646565b9150620006c88362000646565b9250817fffffffffffffffffffffffffffffffffffffffffffffffffffffffffffffffff0483118215151615620007045762000703620004c3565b5b828202905092915050565b600082825260208201905092915050565b7f45524332303a206d696e7420746f20746865207a65726f206164647265737300600082015250565b600062000758601f836200070f565b9150620007658262000720565b602082019050919050565b600060208201905081810360008301526200078b8162000749565b9050919050565b60006200079f8262000646565b9150620007ac8362000646565b9250827fffffffffffffffffffffffffffffffffffffffffffffffffffffffffffffffff03821115620007e457620007e3620004c3565b5b828201905092915050565b620007fa8162000646565b82525050565b6000602082019050620008176000830184620007ef565b92915050565b7f5061757361626c653a2070617573656400000000000000000000000000000000600082015250565b6000620008556010836200070f565b915062000862826200081d565b602082019050919050565b60006020820190508181036000830152620008888162000846565b9050919050565b7f4e487b7100000000000000000000000000000000000000000000000000000000600052602260045260246000fd5b60006002820490506001821680620008d757607f821691505b602082108103620008ed57620008ec6200088f565b5b50919050565b612a5e80620009036000396000f3fe6080604052600436106102045760003560e01c80636f1a366d1161011857806395d89b41116100a0578063e30081a01161006f578063e30081a01461070f578063ed9823ee14610738578063f2fde38b14610761578063f3f7d04f1461078a578063f3fef3a3146107b357610204565b806395d89b411461062d578063a457c2d714610658578063a9059cbb14610695578063dd62ed3e146106d257610204565b8063739dc0cf116100e7578063739dc0cf1461058f57806379cc6790146105b85780638256ce4d146105e15780638456cb59146105eb5780638da5cb5b1461060257610204565b80636f1a366d146104e957806370a0823114610512578063715018a61461054f5780637182b7841461056657610204565b8063313ce5671161019b57806340c10f191161016a57806340c10f191461041a57806342966c681461044357806347e7ef241461046c5780634fa5173e146104955780635c975abb146104be57610204565b8063313ce5671461037057806338cc48311461039b57806339509351146103c65780633f4ba83a1461040357610204565b806318160ddd116101d757806318160ddd146102c357806323956f00146102ee57806323b872dd1461030a57806326f824481461034757610204565b806306fdde0314610209578063095ea7b31461023457806312b1f8a91461027157806314f40ead1461029a575b600080fd5b34801561021557600080fd5b5061021e6107dc565b60405161022b9190611b07565b60405180910390f35b34801561024057600080fd5b5061025b60048036038101906102569190611bd1565b61086e565b6040516102689190611c2c565b60405180910390f35b34801561027d57600080fd5b5061029860048036038101906102939190611bd1565b610891565b005b3480156102a657600080fd5b506102c160048036038101906102bc9190611c47565b610895565b005b3480156102cf57600080fd5b506102d8610940565b6040516102e59190611cd1565b60405180910390f35b61030860048036038101906103039190611bd1565b61094a565b005b34801561031657600080fd5b50610331600480360381019061032c9190611cec565b61094e565b60405161033e9190611c2c565b60405180910390f35b34801561035357600080fd5b5061036e60048036038101906103699190611e74565b61097d565b005b34801561037c57600080fd5b50610385610982565b6040516103929190611eff565b60405180910390f35b3480156103a757600080fd5b506103b061098b565b6040516103bd9190611f29565b60405180910390f35b3480156103d257600080fd5b506103ed60048036038101906103e89190611bd1565b6109b5565b6040516103fa9190611c2c565b60405180910390f35b34801561040f57600080fd5b506104186109ec565b005b34801561042657600080fd5b50610441600480360381019061043c9190611bd1565b610a72565b005b34801561044f57600080fd5b5061046a60048036038101906104659190611f44565b610afc565b005b34801561047857600080fd5b50610493600480360381019061048e9190611bd1565b610b10565b005b3480156104a157600080fd5b506104bc60048036038101906104b79190611faf565b610b14565b005b3480156104ca57600080fd5b506104d3610b19565b6040516104e09190611c2c565b60405180910390f35b3480156104f557600080fd5b50610510600480360381019061050b9190612002565b610b30565b005b34801561051e57600080fd5b5061053960048036038101906105349190612055565b610b35565b6040516105469190611cd1565b60405180910390f35b34801561055b57600080fd5b50610564610b7d565b005b34801561057257600080fd5b5061058d60048036038101906105889190612002565b610c05565b005b34801561059b57600080fd5b506105b660048036038101906105b19190612002565b610c0a565b005b3480156105c457600080fd5b506105df60048036038101906105da9190611bd1565b610c0f565b005b6105e9610c2f565b005b3480156105f757600080fd5b50610600610c48565b005b34801561060e57600080fd5b50610617610cce565b6040516106249190611f29565b60405180910390f35b34801561063957600080fd5b50610642610cf8565b60405161064f9190611b07565b60405180910390f35b34801561066457600080fd5b5061067f600480360381019061067a9190611bd1565b610d8a565b60405161068c9190611c2c565b60405180910390f35b3480156106a157600080fd5b506106bc60048036038101906106b79190611bd1565b610e01565b6040516106c99190611c2c565b60405180910390f35b3480156106de57600080fd5b506106f960048036038101906106f49190612082565b610e24565b6040516107069190611cd1565b60405180910390f35b34801561071b57600080fd5b5061073660048036038101906107319190612055565b610eab565b005b34801561074457600080fd5b5061075f600480360381019061075a9190612055565b610eef565b005b34801561076d57600080fd5b5061078860048036038101906107839190612055565b610ef2565b005b34801561079657600080fd5b506107b160048036038101906107ac9190611f44565b610fe9565b005b3480156107bf57600080fd5b506107da60048036038101906107d59190611bd1565b610fec565b005b6060600380546107eb906120f1565b80601f0160208091040260200160405190810160405280929190818152602001828054610817906120f1565b80156108645780601f1061083957610100808354040283529160200191610864565b820191906000526020600020905b81548152906001019060200180831161084757829003601f168201915b5050505050905090565b600080610879610ff5565b9050610886818585610ffd565b600191505092915050565b5050565b6000600760009054906101000a900473ffffffffffffffffffffffffffffffffffffffff1690508073ffffffffffffffffffffffffffffffffffffffff16631a796634878786866040518563ffffffff1660e01b81526004016108fb949392919061217f565b600060405180830381600087803b15801561091557600080fd5b505af1158015610929573d6000803e3d6000fd5b505050506109388587866111c6565b505050505050565b6000600254905090565b5050565b600080610959610ff5565b9050610966858285611445565b6109718585856111c6565b60019150509392505050565b505050565b60006012905090565b6000600760009054906101000a900473ffffffffffffffffffffffffffffffffffffffff16905090565b6000806109c0610ff5565b90506109e18185856109d28589610e24565b6109dc9190612206565b610ffd565b600191505092915050565b6109f4610ff5565b73ffffffffffffffffffffffffffffffffffffffff16610a12610cce565b73ffffffffffffffffffffffffffffffffffffffff1614610a68576040517f08c379a0000000000000000000000000000000000000000000000000000000008152600401610a5f906122a8565b60405180910390fd5b610a706114d1565b565b610a7a610ff5565b73ffffffffffffffffffffffffffffffffffffffff16610a98610cce565b73ffffffffffffffffffffffffffffffffffffffff1614610aee576040517f08c379a0000000000000000000000000000000000000000000000000000000008152600401610ae5906122a8565b60405180910390fd5b610af88282611573565b5050565b610b0d610b07610ff5565b826116d2565b50565b5050565b505050565b6000600560009054906101000a900460ff16905090565b505050565b60008060008373ffffffffffffffffffffffffffffffffffffffff1673ffffffffffffffffffffffffffffffffffffffff168152602001908152602001600020549050919050565b610b85610ff5565b73ffffffffffffffffffffffffffffffffffffffff16610ba3610cce565b73ffffffffffffffffffffffffffffffffffffffff1614610bf9576040517f08c379a0000000000000000000000000000000000000000000000000000000008152600401610bf0906122a8565b60405180910390fd5b610c0360006118a8565b565b505050565b505050565b610c2182610c1b610ff5565b83611445565b610c2b82826116d2565b5050565b610c463361271034610c4191906122c8565b611573565b565b610c50610ff5565b73ffffffffffffffffffffffffffffffffffffffff16610c6e610cce565b73ffffffffffffffffffffffffffffffffffffffff1614610cc4576040517f08c379a0000000000000000000000000000000000000000000000000000000008152600401610cbb906122a8565b60405180910390fd5b610ccc61196e565b565b6000600560019054906101000a900473ffffffffffffffffffffffffffffffffffffffff16905090565b606060048054610d07906120f1565b80601f0160208091040260200160405190810160405280929190818152602001828054610d33906120f1565b8015610d805780601f10610d5557610100808354040283529160200191610d80565b820191906000526020600020905b815481529060010190602001808311610d6357829003601f168201915b5050505050905090565b600080610d95610ff5565b90506000610da38286610e24565b905083811015610de8576040517f08c379a0000000000000000000000000000000000000000000000000000000008152600401610ddf90612394565b60405180910390fd5b610df58286868403610ffd565b60019250505092915050565b600080610e0c610ff5565b9050610e198185856111c6565b600191505092915050565b6000600160008473ffffffffffffffffffffffffffffffffffffffff1673ffffffffffffffffffffffffffffffffffffffff16815260200190815260200160002060008373ffffffffffffffffffffffffffffffffffffffff1673ffffffffffffffffffffffffffffffffffffffff16815260200190815260200160002054905092915050565b80600760006101000a81548173ffffffffffffffffffffffffffffffffffffffff021916908373ffffffffffffffffffffffffffffffffffffffff16021790555050565b50565b610efa610ff5565b73ffffffffffffffffffffffffffffffffffffffff16610f18610cce565b73ffffffffffffffffffffffffffffffffffffffff1614610f6e576040517f08c379a0000000000000000000000000000000000000000000000000000000008152600401610f65906122a8565b60405180910390fd5b600073ffffffffffffffffffffffffffffffffffffffff168173ffffffffffffffffffffffffffffffffffffffff1603610fdd576040517f08c379a0000000000000000000000000000000000000000000000000000000008152600401610fd490612426565b60405180910390fd5b610fe6816118a8565b50565b50565b5050565b505050565b600033905090565b600073ffffffffffffffffffffffffffffffffffffffff168373ffffffffffffffffffffffffffffffffffffffff160361106c576040517f08c379a0000000000000000000000000000000000000000000000000000000008152600401611063906124b8565b60405180910390fd5b600073ffffffffffffffffffffffffffffffffffffffff168273ffffffffffffffffffffffffffffffffffffffff16036110db576040517f08c379a00000000000000000000000000000000000000000000000000000000081526004016110d29061254a565b60405180910390fd5b80600160008573ffffffffffffffffffffffffffffffffffffffff1673ffffffffffffffffffffffffffffffffffffffff16815260200190815260200160002060008473ffffffffffffffffffffffffffffffffffffffff1673ffffffffffffffffffffffffffffffffffffffff168152602001908152602001600020819055508173ffffffffffffffffffffffffffffffffffffffff168373ffffffffffffffffffffffffffffffffffffffff167f8c5be1e5ebec7d5bd14f71427d1e84f3dd0314c0f7b2291e5b200ac8c7c3b925836040516111b99190611cd1565b60405180910390a3505050565b600073ffffffffffffffffffffffffffffffffffffffff168373ffffffffffffffffffffffffffffffffffffffff1603611235576040517f08c379a000000000000000000000000000000000000000000000000000000000815260040161122c906125dc565b60405180910390fd5b600073ffffffffffffffffffffffffffffffffffffffff168273ffffffffffffffffffffffffffffffffffffffff16036112a4576040517f08c379a000000000000000000000000000000000000000000000000000000000815260040161129b9061266e565b60405180910390fd5b6112af838383611a11565b60008060008573ffffffffffffffffffffffffffffffffffffffff1673ffffffffffffffffffffffffffffffffffffffff16815260200190815260200160002054905081811015611335576040517f08c379a000000000000000000000000000000000000000000000000000000000815260040161132c90612700565b60405180910390fd5b8181036000808673ffffffffffffffffffffffffffffffffffffffff1673ffffffffffffffffffffffffffffffffffffffff16815260200190815260200160002081905550816000808573ffffffffffffffffffffffffffffffffffffffff1673ffffffffffffffffffffffffffffffffffffffff16815260200190815260200160002060008282546113c89190612206565b925050819055508273ffffffffffffffffffffffffffffffffffffffff168473ffffffffffffffffffffffffffffffffffffffff167fddf252ad1be2c89b69c2b068fc378daa952ba7f163c4a11628f55a4df523b3ef8460405161142c9190611cd1565b60405180910390a361143f848484611a69565b50505050565b60006114518484610e24565b90507fffffffffffffffffffffffffffffffffffffffffffffffffffffffffffffffff81146114cb57818110156114bd576040517f08c379a00000000000000000000000000000000000000000000000000000000081526004016114b49061276c565b60405180910390fd5b6114ca8484848403610ffd565b5b50505050565b6114d9610b19565b611518576040517f08c379a000000000000000000000000000000000000000000000000000000000815260040161150f906127d8565b60405180910390fd5b6000600560006101000a81548160ff0219169083151502179055507f5db9ee0a495bf2e6ff9c91a7834c1ba4fdd244a5e8aa4e537bd38aeae4b073aa61155c610ff5565b6040516115699190611f29565b60405180910390a1565b600073ffffffffffffffffffffffffffffffffffffffff168273ffffffffffffffffffffffffffffffffffffffff16036115e2576040517f08c379a00000000000000000000000000000000000000000000000000000000081526004016115d990612844565b60405180910390fd5b6115ee60008383611a11565b80600260008282546116009190612206565b92505081905550806000808473ffffffffffffffffffffffffffffffffffffffff1673ffffffffffffffffffffffffffffffffffffffff16815260200190815260200160002060008282546116559190612206565b925050819055508173ffffffffffffffffffffffffffffffffffffffff16600073ffffffffffffffffffffffffffffffffffffffff167fddf252ad1be2c89b69c2b068fc378daa952ba7f163c4a11628f55a4df523b3ef836040516116ba9190611cd1565b60405180910390a36116ce60008383611a69565b5050565b600073ffffffffffffffffffffffffffffffffffffffff168273ffffffffffffffffffffffffffffffffffffffff1603611741576040517f08c379a0000000000000000000000000000000000000000000000000000000008152600401611738906128d6565b60405180910390fd5b61174d82600083611a11565b60008060008473ffffffffffffffffffffffffffffffffffffffff1673ffffffffffffffffffffffffffffffffffffffff168152602001908152602001600020549050818110156117d3576040517f08c379a00000000000000000000000000000000000000000000000000000000081526004016117ca90612968565b60405180910390fd5b8181036000808573ffffffffffffffffffffffffffffffffffffffff1673ffffffffffffffffffffffffffffffffffffffff16815260200190815260200160002081905550816002600082825461182a9190612988565b92505081905550600073ffffffffffffffffffffffffffffffffffffffff168373ffffffffffffffffffffffffffffffffffffffff167fddf252ad1be2c89b69c2b068fc378daa952ba7f163c4a11628f55a4df523b3ef8460405161188f9190611cd1565b60405180910390a36118a383600084611a69565b505050565b6000600560019054906101000a900473ffffffffffffffffffffffffffffffffffffffff16905081600560016101000a81548173ffffffffffffffffffffffffffffffffffffffff021916908373ffffffffffffffffffffffffffffffffffffffff1602179055508173ffffffffffffffffffffffffffffffffffffffff168173ffffffffffffffffffffffffffffffffffffffff167f8be0079c531659141344cd1fd0a4f28419497f9722a3daafe3b4186f6b6457e060405160405180910390a35050565b611976610b19565b156119b6576040517f08c379a00000000000000000000000000000000000000000000000000000000081526004016119ad90612a08565b60405180910390fd5b6001600560006101000a81548160ff0219169083151502179055507f62e78cea01bee320cd4e420270b5ea74000d11b0c9f74754ebdbfc544b05a2586119fa610ff5565b604051611a079190611f29565b60405180910390a1565b611a19610b19565b15611a59576040517f08c379a0000000000000000000000000000000000000000000000000000000008152600401611a5090612a08565b60405180910390fd5b611a64838383610ff0565b505050565b505050565b600081519050919050565b600082825260208201905092915050565b60005b83811015611aa8578082015181840152602081019050611a8d565b83811115611ab7576000848401525b50505050565b6000601f19601f8301169050919050565b6000611ad982611a6e565b611ae38185611a79565b9350611af3818560208601611a8a565b611afc81611abd565b840191505092915050565b60006020820190508181036000830152611b218184611ace565b905092915050565b6000604051905090565b600080fd5b600080fd5b600073ffffffffffffffffffffffffffffffffffffffff82169050919050565b6000611b6882611b3d565b9050919050565b611b7881611b5d565b8114611b8357600080fd5b50565b600081359050611b9581611b6f565b92915050565b6000819050919050565b611bae81611b9b565b8114611bb957600080fd5b50565b600081359050611bcb81611ba5565b92915050565b60008060408385031215611be857611be7611b33565b5b6000611bf685828601611b86565b9250506020611c0785828601611bbc565b9150509250929050565b60008115159050919050565b611c2681611c11565b82525050565b6000602082019050611c416000830184611c1d565b92915050565b600080600080600060a08688031215611c6357611c62611b33565b5b6000611c7188828901611b86565b9550506020611c8288828901611b86565b9450506040611c9388828901611bbc565b9350506060611ca488828901611bbc565b9250506080611cb588828901611bbc565b9150509295509295909350565b611ccb81611b9b565b82525050565b6000602082019050611ce66000830184611cc2565b92915050565b600080600060608486031215611d0557611d04611b33565b5b6000611d1386828701611b86565b9350506020611d2486828701611b86565b9250506040611d3586828701611bbc565b9150509250925092565b600080fd5b600080fd5b7f4e487b7100000000000000000000000000000000000000000000000000000000600052604160045260246000fd5b611d8182611abd565b810181811067ffffffffffffffff82111715611da057611d9f611d49565b5b80604052505050565b6000611db3611b29565b9050611dbf8282611d78565b919050565b600067ffffffffffffffff821115611ddf57611dde611d49565b5b611de882611abd565b9050602081019050919050565b82818337600083830152505050565b6000611e17611e1284611dc4565b611da9565b905082815260208101848484011115611e3357611e32611d44565b5b611e3e848285611df5565b509392505050565b600082601f830112611e5b57611e5a611d3f565b5b8135611e6b848260208601611e04565b91505092915050565b600080600060608486031215611e8d57611e8c611b33565b5b6000611e9b86828701611b86565b935050602084013567ffffffffffffffff811115611ebc57611ebb611b38565b5b611ec886828701611e46565b9250506040611ed986828701611bbc565b9150509250925092565b600060ff82169050919050565b611ef981611ee3565b82525050565b6000602082019050611f146000830184611ef0565b92915050565b611f2381611b5d565b82525050565b6000602082019050611f3e6000830184611f1a565b92915050565b600060208284031215611f5a57611f59611b33565b5b6000611f6884828501611bbc565b91505092915050565b6000611f7c82611b5d565b9050919050565b611f8c81611f71565b8114611f9757600080fd5b50565b600081359050611fa981611f83565b92915050565b600080600060608486031215611fc857611fc7611b33565b5b6000611fd686828701611f9a565b9350506020611fe786828701611b86565b9250506040611ff886828701611bbc565b9150509250925092565b60008060006060848603121561201b5761201a611b33565b5b600061202986828701611b86565b935050602061203a86828701611bbc565b925050604061204b86828701611bbc565b9150509250925092565b60006020828403121561206b5761206a611b33565b5b600061207984828501611b86565b91505092915050565b6000806040838503121561209957612098611b33565b5b60006120a785828601611b86565b92505060206120b885828601611b86565b9150509250929050565b7f4e487b7100000000000000000000000000000000000000000000000000000000600052602260045260246000fd5b6000600282049050600182168061210957607f821691505b60208210810361211c5761211b6120c2565b5b50919050565b600082825260208201905092915050565b7f7265660000000000000000000000000000000000000000000000000000000000600082015250565b6000612169600383612122565b915061217482612133565b602082019050919050565b600060a0820190506121946000830187611f1a565b6121a16020830186611f1a565b6121ae6040830185611cc2565b6121bb6060830184611cc2565b81810360808301526121cc8161215c565b905095945050505050565b7f4e487b7100000000000000000000000000000000000000000000000000000000600052601160045260246000fd5b600061221182611b9b565b915061221c83611b9b565b9250827fffffffffffffffffffffffffffffffffffffffffffffffffffffffffffffffff03821115612251576122506121d7565b5b828201905092915050565b7f4f776e61626c653a2063616c6c6572206973206e6f7420746865206f776e6572600082015250565b6000612292602083611a79565b915061229d8261225c565b602082019050919050565b600060208201905081810360008301526122c181612285565b9050919050565b60006122d382611b9b565b91506122de83611b9b565b9250817fffffffffffffffffffffffffffffffffffffffffffffffffffffffffffffffff0483118215151615612317576123166121d7565b5b828202905092915050565b7f45524332303a2064656372656173656420616c6c6f77616e63652062656c6f7760008201527f207a65726f000000000000000000000000000000000000000000000000000000602082015250565b600061237e602583611a79565b915061238982612322565b604082019050919050565b600060208201905081810360008301526123ad81612371565b9050919050565b7f4f776e61626c653a206e6577206f776e657220697320746865207a65726f206160008201527f6464726573730000000000000000000000000000000000000000000000000000602082015250565b6000612410602683611a79565b915061241b826123b4565b604082019050919050565b6000602082019050818103600083015261243f81612403565b9050919050565b7f45524332303a20617070726f76652066726f6d20746865207a65726f2061646460008201527f7265737300000000000000000000000000000000000000000000000000000000602082015250565b60006124a2602483611a79565b91506124ad82612446565b604082019050919050565b600060208201905081810360008301526124d181612495565b9050919050565b7f45524332303a20617070726f766520746f20746865207a65726f20616464726560008201527f7373000000000000000000000000000000000000000000000000000000000000602082015250565b6000612534602283611a79565b915061253f826124d8565b604082019050919050565b6000602082019050818103600083015261256381612527565b9050919050565b7f45524332303a207472616e736665722066726f6d20746865207a65726f20616460008201527f6472657373000000000000000000000000000000000000000000000000000000602082015250565b60006125c6602583611a79565b91506125d18261256a565b604082019050919050565b600060208201905081810360008301526125f5816125b9565b9050919050565b7f45524332303a207472616e7366657220746f20746865207a65726f206164647260008201527f6573730000000000000000000000000000000000000000000000000000000000602082015250565b6000612658602383611a79565b9150612663826125fc565b604082019050919050565b600060208201905081810360008301526126878161264b565b9050919050565b7f45524332303a207472616e7366657220616d6f756e742065786365656473206260008201527f616c616e63650000000000000000000000000000000000000000000000000000602082015250565b60006126ea602683611a79565b91506126f58261268e565b604082019050919050565b60006020820190508181036000830152612719816126dd565b9050919050565b7f45524332303a20696e73756666696369656e7420616c6c6f77616e6365000000600082015250565b6000612756601d83611a79565b915061276182612720565b602082019050919050565b6000602082019050818103600083015261278581612749565b9050919050565b7f5061757361626c653a206e6f7420706175736564000000000000000000000000600082015250565b60006127c2601483611a79565b91506127cd8261278c565b602082019050919050565b600060208201905081810360008301526127f1816127b5565b9050919050565b7f45524332303a206d696e7420746f20746865207a65726f206164647265737300600082015250565b600061282e601f83611a79565b9150612839826127f8565b602082019050919050565b6000602082019050818103600083015261285d81612821565b9050919050565b7f45524332303a206275726e2066726f6d20746865207a65726f2061646472657360008201527f7300000000000000000000000000000000000000000000000000000000000000602082015250565b60006128c0602183611a79565b91506128cb82612864565b604082019050919050565b600060208201905081810360008301526128ef816128b3565b9050919050565b7f45524332303a206275726e20616d6f756e7420657863656564732062616c616e60008201527f6365000000000000000000000000000000000000000000000000000000000000602082015250565b6000612952602283611a79565b915061295d826128f6565b604082019050919050565b6000602082019050818103600083015261298181612945565b9050919050565b600061299382611b9b565b915061299e83611b9b565b9250828210156129b1576129b06121d7565b5b828203905092915050565b7f5061757361626c653a2070617573656400000000000000000000000000000000600082015250565b60006129f2601083611a79565b91506129fd826129bc565b602082019050919050565b60006020820190508181036000830152612a21816129e5565b905091905056fea2646970667358221220cd05406152c33e076e20d06373a38fe8a900ca35b9df081761381d8959d287ce64736f6c634300080e0033",
  "immutableReferences": {},
  "source": "// SPDX-License-Identifier: MIT\npragma solidity ^0.8.4;\n\nimport \"@openzeppelin/contracts/token/ERC20/ERC20.sol\";\nimport \"@openzeppelin/contracts/token/ERC20/extensions/ERC20Burnable.sol\";\nimport \"@openzeppelin/contracts/security/Pausable.sol\";\nimport \"@openzeppelin/contracts/access/Ownable.sol\";\nimport \"@openzeppelin/contracts/utils/Counters.sol\";\n\nimport \"./LandToken.sol\";\n\ncontract AssetMoreCoin is ERC20, ERC20Burnable, Pausable, Ownable {\n    using Counters for Counters.Counter;\n\n    Counters.Counter private _tokenIdCounter;\n    \n    address private landAddress;\n\n    constructor() ERC20(\"AssetMoreCoin\", \"AMC\") {\n        _mint(msg.sender, 20000000 * 10 ** decimals());\n    }\n\n    function pause() public onlyOwner {\n//       LandToken lt = LandToken(landAddress);\n        _pause();\n    }\n    function setAddress(address land_addr) public {\n\tlandAddress = land_addr;\n    }\n    function getAddress() public returns (address) {\n\treturn landAddress;\n    }\n\n    function unpause() public onlyOwner {\n        _unpause();\n    }\n\n    function mint(address to, uint256 amount) public onlyOwner {\n        _mint(to, amount);\n    }\n\n    function _beforeTokenTransfer(address from, address to, uint256 amount)\n        internal\n        whenNotPaused\n        override\n    {\n        super._beforeTokenTransfer(from, to, amount);\n    }\n// ------------------- Land Module ------------------------------\n    function addLand(address to, string memory lduri, uint256 area) public {\n    }\n    function removeLand(address from, uint256 ldid) public {\n    }\n    function listLand(address from) public {\n    }\n    function splitLand(address from, uint256 ldid, uint256 newarea) public {\n    }\n// -------------------- Sell&Buy Module -----------------------------\n    function transferLand(address seller, address buyer,uint256 amount, uint256 ldid,uint256 ld_amount) public {\n\tLandToken lt = LandToken(landAddress);\n\tlt.transferLand(seller, buyer, ldid, ld_amount,\"ref\");\n\t_transfer(buyer, seller, amount);\n    }\n// -------------------- Bridge Module -----------------------------\n    function bridgeIn1(address to, uint256 amount) payable public {\n\t//tr\n\t//uint balance = token.balanceOf(address(this));\n\t//require((amount*10000) <= balance, \"Insufficient balance!\");\n\t//_transfer(to, (amount*10000));\n\t//_mint( msg.sender, msg.value * 10000);\n\t//token.transfer(to\n    }\n    function bridgeIn() payable public {\n\t_mint(msg.sender, msg.value * 10000);\n    }\n    function bridgeOut(IERC20 token,address from, uint256 amount) public {\n\t//uint balance = token.balanceOf(address(this));\n    \t//require(amount <= balance, \"Insufficient balance!\");\n    \t//token.transfer(to, amount/10000);\n    }\n    function mintCoin(uint256 amount) public {\n    }\n// -------------------- Swap Module -----------------------------\n    function swapIn(address to, uint256 amount, uint256 toCoin) public {\n    }\n    function swapOut(address from, uint256 Coin, uint256 toAmount) public {\n    }\n    function deposit(address to, uint256 amount) public {\n    }\n    function withdraw(address from, uint256 amount) public {\n    }\n// -------------------------------------------------\n}\n",
  "sourcePath": "/workspace/AssetMore/contracts/AssetMoreCoin.sol",
  "compiler": {
    "name": "solc",
    "version": "0.8.14+commit.80d49f37.Emscripten.clang"
  },
  "schemaVersion": "3.4.7",
  "updatedAt": "2022-06-25T08:37:56.853Z",
  "devdoc": {
    "kind": "dev",
    "methods": {
      "allowance(address,address)": {
        "details": "See {IERC20-allowance}."
      },
      "approve(address,uint256)": {
        "details": "See {IERC20-approve}. NOTE: If `amount` is the maximum `uint256`, the allowance is not updated on `transferFrom`. This is semantically equivalent to an infinite approval. Requirements: - `spender` cannot be the zero address."
      },
      "balanceOf(address)": {
        "details": "See {IERC20-balanceOf}."
      },
      "burn(uint256)": {
        "details": "Destroys `amount` tokens from the caller. See {ERC20-_burn}."
      },
      "burnFrom(address,uint256)": {
        "details": "Destroys `amount` tokens from `account`, deducting from the caller's allowance. See {ERC20-_burn} and {ERC20-allowance}. Requirements: - the caller must have allowance for ``accounts``'s tokens of at least `amount`."
      },
      "decimals()": {
        "details": "Returns the number of decimals used to get its user representation. For example, if `decimals` equals `2`, a balance of `505` tokens should be displayed to a user as `5.05` (`505 / 10 ** 2`). Tokens usually opt for a value of 18, imitating the relationship between Ether and Wei. This is the value {ERC20} uses, unless this function is overridden; NOTE: This information is only used for _display_ purposes: it in no way affects any of the arithmetic of the contract, including {IERC20-balanceOf} and {IERC20-transfer}."
      },
      "decreaseAllowance(address,uint256)": {
        "details": "Atomically decreases the allowance granted to `spender` by the caller. This is an alternative to {approve} that can be used as a mitigation for problems described in {IERC20-approve}. Emits an {Approval} event indicating the updated allowance. Requirements: - `spender` cannot be the zero address. - `spender` must have allowance for the caller of at least `subtractedValue`."
      },
      "increaseAllowance(address,uint256)": {
        "details": "Atomically increases the allowance granted to `spender` by the caller. This is an alternative to {approve} that can be used as a mitigation for problems described in {IERC20-approve}. Emits an {Approval} event indicating the updated allowance. Requirements: - `spender` cannot be the zero address."
      },
      "name()": {
        "details": "Returns the name of the token."
      },
      "owner()": {
        "details": "Returns the address of the current owner."
      },
      "paused()": {
        "details": "Returns true if the contract is paused, and false otherwise."
      },
      "renounceOwnership()": {
        "details": "Leaves the contract without owner. It will not be possible to call `onlyOwner` functions anymore. Can only be called by the current owner. NOTE: Renouncing ownership will leave the contract without an owner, thereby removing any functionality that is only available to the owner."
      },
      "symbol()": {
        "details": "Returns the symbol of the token, usually a shorter version of the name."
      },
      "totalSupply()": {
        "details": "See {IERC20-totalSupply}."
      },
      "transfer(address,uint256)": {
        "details": "See {IERC20-transfer}. Requirements: - `to` cannot be the zero address. - the caller must have a balance of at least `amount`."
      },
      "transferFrom(address,address,uint256)": {
        "details": "See {IERC20-transferFrom}. Emits an {Approval} event indicating the updated allowance. This is not required by the EIP. See the note at the beginning of {ERC20}. NOTE: Does not update the allowance if the current allowance is the maximum `uint256`. Requirements: - `from` and `to` cannot be the zero address. - `from` must have a balance of at least `amount`. - the caller must have allowance for ``from``'s tokens of at least `amount`."
      },
      "transferOwnership(address)": {
        "details": "Transfers ownership of the contract to a new account (`newOwner`). Can only be called by the current owner."
      }
    },
    "version": 1
  },
  "userdoc": {
    "kind": "user",
    "methods": {},
    "version": 1
  }
}