{
  "contractName": "LandToken",
  "abi": [
    {
      "inputs": [],
      "stateMutability": "nonpayable",
      "type": "constructor"
    },
    {
      "anonymous": false,
      "inputs": [
        {
          "indexed": true,
          "internalType": "address",
          "name": "account",
          "type": "address"
        },
        {
          "indexed": true,
          "internalType": "address",
          "name": "operator",
          "type": "address"
        },
        {
          "indexed": false,
          "internalType": "bool",
          "name": "approved",
          "type": "bool"
        }
      ],
      "name": "ApprovalForAll",
      "type": "event"
    },
    {
      "anonymous": false,
      "inputs": [
        {
          "indexed": true,
          "internalType": "address",
          "name": "previousOwner",
          "type": "address"
        },
        {
          "indexed": true,
          "internalType": "address",
          "name": "newOwner",
          "type": "address"
        }
      ],
      "name": "OwnershipTransferred",
      "type": "event"
    },
    {
      "anonymous": false,
      "inputs": [
        {
          "indexed": true,
          "internalType": "address",
          "name": "operator",
          "type": "address"
        },
        {
          "indexed": true,
          "internalType": "address",
          "name": "from",
          "type": "address"
        },
        {
          "indexed": true,
          "internalType": "address",
          "name": "to",
          "type": "address"
        },
        {
          "indexed": false,
          "internalType": "uint256[]",
          "name": "ids",
          "type": "uint256[]"
        },
        {
          "indexed": false,
          "internalType": "uint256[]",
          "name": "values",
          "type": "uint256[]"
        }
      ],
      "name": "TransferBatch",
      "type": "event"
    },
    {
      "anonymous": false,
      "inputs": [
        {
          "indexed": true,
          "internalType": "address",
          "name": "operator",
          "type": "address"
        },
        {
          "indexed": true,
          "internalType": "address",
          "name": "from",
          "type": "address"
        },
        {
          "indexed": true,
          "internalType": "address",
          "name": "to",
          "type": "address"
        },
        {
          "indexed": false,
          "internalType": "uint256",
          "name": "id",
          "type": "uint256"
        },
        {
          "indexed": false,
          "internalType": "uint256",
          "name": "value",
          "type": "uint256"
        }
      ],
      "name": "TransferSingle",
      "type": "event"
    },
    {
      "anonymous": false,
      "inputs": [
        {
          "indexed": false,
          "internalType": "string",
          "name": "value",
          "type": "string"
        },
        {
          "indexed": true,
          "internalType": "uint256",
          "name": "id",
          "type": "uint256"
        }
      ],
      "name": "URI",
      "type": "event"
    },
    {
      "inputs": [
        {
          "internalType": "address",
          "name": "account",
          "type": "address"
        },
        {
          "internalType": "uint256",
          "name": "id",
          "type": "uint256"
        }
      ],
      "name": "balanceOf",
      "outputs": [
        {
          "internalType": "uint256",
          "name": "",
          "type": "uint256"
        }
      ],
      "stateMutability": "view",
      "type": "function"
    },
    {
      "inputs": [
        {
          "internalType": "address[]",
          "name": "accounts",
          "type": "address[]"
        },
        {
          "internalType": "uint256[]",
          "name": "ids",
          "type": "uint256[]"
        }
      ],
      "name": "balanceOfBatch",
      "outputs": [
        {
          "internalType": "uint256[]",
          "name": "",
          "type": "uint256[]"
        }
      ],
      "stateMutability": "view",
      "type": "function"
    },
    {
      "inputs": [
        {
          "internalType": "address",
          "name": "account",
          "type": "address"
        },
        {
          "internalType": "uint256",
          "name": "id",
          "type": "uint256"
        },
        {
          "internalType": "uint256",
          "name": "value",
          "type": "uint256"
        }
      ],
      "name": "burn",
      "outputs": [],
      "stateMutability": "nonpayable",
      "type": "function"
    },
    {
      "inputs": [
        {
          "internalType": "address",
          "name": "account",
          "type": "address"
        },
        {
          "internalType": "uint256[]",
          "name": "ids",
          "type": "uint256[]"
        },
        {
          "internalType": "uint256[]",
          "name": "values",
          "type": "uint256[]"
        }
      ],
      "name": "burnBatch",
      "outputs": [],
      "stateMutability": "nonpayable",
      "type": "function"
    },
    {
      "inputs": [
        {
          "internalType": "address",
          "name": "account",
          "type": "address"
        },
        {
          "internalType": "address",
          "name": "operator",
          "type": "address"
        }
      ],
      "name": "isApprovedForAll",
      "outputs": [
        {
          "internalType": "bool",
          "name": "",
          "type": "bool"
        }
      ],
      "stateMutability": "view",
      "type": "function"
    },
    {
      "inputs": [],
      "name": "owner",
      "outputs": [
        {
          "internalType": "address",
          "name": "",
          "type": "address"
        }
      ],
      "stateMutability": "view",
      "type": "function"
    },
    {
      "inputs": [],
      "name": "renounceOwnership",
      "outputs": [],
      "stateMutability": "nonpayable",
      "type": "function"
    },
    {
      "inputs": [
        {
          "internalType": "address",
          "name": "from",
          "type": "address"
        },
        {
          "internalType": "address",
          "name": "to",
          "type": "address"
        },
        {
          "internalType": "uint256[]",
          "name": "ids",
          "type": "uint256[]"
        },
        {
          "internalType": "uint256[]",
          "name": "amounts",
          "type": "uint256[]"
        },
        {
          "internalType": "bytes",
          "name": "data",
          "type": "bytes"
        }
      ],
      "name": "safeBatchTransferFrom",
      "outputs": [],
      "stateMutability": "nonpayable",
      "type": "function"
    },
    {
      "inputs": [
        {
          "internalType": "address",
          "name": "from",
          "type": "address"
        },
        {
          "internalType": "address",
          "name": "to",
          "type": "address"
        },
        {
          "internalType": "uint256",
          "name": "id",
          "type": "uint256"
        },
        {
          "internalType": "uint256",
          "name": "amount",
          "type": "uint256"
        },
        {
          "internalType": "bytes",
          "name": "data",
          "type": "bytes"
        }
      ],
      "name": "safeTransferFrom",
      "outputs": [],
      "stateMutability": "nonpayable",
      "type": "function"
    },
    {
      "inputs": [
        {
          "internalType": "address",
          "name": "operator",
          "type": "address"
        },
        {
          "internalType": "bool",
          "name": "approved",
          "type": "bool"
        }
      ],
      "name": "setApprovalForAll",
      "outputs": [],
      "stateMutability": "nonpayable",
      "type": "function"
    },
    {
      "inputs": [
        {
          "internalType": "bytes4",
          "name": "interfaceId",
          "type": "bytes4"
        }
      ],
      "name": "supportsInterface",
      "outputs": [
        {
          "internalType": "bool",
          "name": "",
          "type": "bool"
        }
      ],
      "stateMutability": "view",
      "type": "function"
    },
    {
      "inputs": [
        {
          "internalType": "address",
          "name": "newOwner",
          "type": "address"
        }
      ],
      "name": "transferOwnership",
      "outputs": [],
      "stateMutability": "nonpayable",
      "type": "function"
    },
    {
      "inputs": [
        {
          "internalType": "uint256",
          "name": "",
          "type": "uint256"
        }
      ],
      "name": "uri",
      "outputs": [
        {
          "internalType": "string",
          "name": "",
          "type": "string"
        }
      ],
      "stateMutability": "view",
      "type": "function"
    },
    {
      "inputs": [
        {
          "internalType": "address",
          "name": "from",
          "type": "address"
        },
        {
          "internalType": "address",
          "name": "to",
          "type": "address"
        },
        {
          "internalType": "uint256",
          "name": "ldid",
          "type": "uint256"
        },
        {
          "internalType": "uint256",
          "name": "ld_amount",
          "type": "uint256"
        },
        {
          "internalType": "bytes",
          "name": "val",
          "type": "bytes"
        }
      ],
      "name": "transferLand",
      "outputs": [],
      "stateMutability": "nonpayable",
      "type": "function"
    },
    {
      "inputs": [
        {
          "internalType": "string",
          "name": "newuri",
          "type": "string"
        }
      ],
      "name": "setURI",
      "outputs": [],
      "stateMutability": "nonpayable",
      "type": "function"
    },
    {
      "inputs": [
        {
          "internalType": "address",
          "name": "account",
          "type": "address"
        },
        {
          "internalType": "uint256",
          "name": "id",
          "type": "uint256"
        },
        {
          "internalType": "uint256",
          "name": "amount",
          "type": "uint256"
        },
        {
          "internalType": "bytes",
          "name": "data",
          "type": "bytes"
        }
      ],
      "name": "mint",
      "outputs": [],
      "stateMutability": "nonpayable",
      "type": "function"
    },
    {
      "inputs": [
        {
          "internalType": "address",
          "name": "to",
          "type": "address"
        },
        {
          "internalType": "uint256[]",
          "name": "ids",
          "type": "uint256[]"
        },
        {
          "internalType": "uint256[]",
          "name": "amounts",
          "type": "uint256[]"
        },
        {
          "internalType": "bytes",
          "name": "data",
          "type": "bytes"
        }
      ],
      "name": "mintBatch",
      "outputs": [],
      "stateMutability": "nonpayable",
      "type": "function"
    }
  ],
  "bytecode": "0x60806040523480156200001157600080fd5b506040518060200160405280600081525062000033816200052160201b60201c565b5062000054620000486200053d60201b60201c565b6200054560201b60201c565b60006200006d60046200060b60201b62000d1d1760201c565b90506200008660046200061960201b62000d2b1760201c565b620000d0338260646040518060400160405280600281526020017f41310000000000000000000000000000000000000000000000000000000000008152506200062f60201b60201c565b620000e760046200060b60201b62000d1d1760201c565b90506200010060046200061960201b62000d2b1760201c565b6200014a338260646040518060400160405280600281526020017f41320000000000000000000000000000000000000000000000000000000000008152506200062f60201b60201c565b6200016160046200060b60201b62000d1d1760201c565b90506200017a60046200061960201b62000d2b1760201c565b620001c4338260646040518060400160405280600281526020017f41330000000000000000000000000000000000000000000000000000000000008152506200062f60201b60201c565b620001db60046200060b60201b62000d1d1760201c565b9050620001f460046200061960201b62000d2b1760201c565b6200023e338260646040518060400160405280600281526020017f41340000000000000000000000000000000000000000000000000000000000008152506200062f60201b60201c565b6200025560046200060b60201b62000d1d1760201c565b90506200026e60046200061960201b62000d2b1760201c565b620002b8338260646040518060400160405280600281526020017f41350000000000000000000000000000000000000000000000000000000000008152506200062f60201b60201c565b620002cf60046200060b60201b62000d1d1760201c565b9050620002e860046200061960201b62000d2b1760201c565b62000332338260646040518060400160405280600281526020017f41360000000000000000000000000000000000000000000000000000000000008152506200062f60201b60201c565b6200034960046200060b60201b62000d1d1760201c565b90506200036260046200061960201b62000d2b1760201c565b620003ac338260646040518060400160405280600281526020017f41370000000000000000000000000000000000000000000000000000000000008152506200062f60201b60201c565b620003c360046200060b60201b62000d1d1760201c565b9050620003dc60046200061960201b62000d2b1760201c565b62000426338260646040518060400160405280600281526020017f41380000000000000000000000000000000000000000000000000000000000008152506200062f60201b60201c565b6200043d60046200060b60201b62000d1d1760201c565b90506200045660046200061960201b62000d2b1760201c565b620004a0338260646040518060400160405280600281526020017f41390000000000000000000000000000000000000000000000000000000000008152506200062f60201b60201c565b620004b760046200060b60201b62000d1d1760201c565b9050620004d060046200061960201b62000d2b1760201c565b6200051a338260646040518060400160405280600381526020017f41313000000000000000000000000000000000000000000000000000000000008152506200062f60201b60201c565b5062001240565b80600290805190602001906200053992919062000ac3565b5050565b600033905090565b6000600360009054906101000a900473ffffffffffffffffffffffffffffffffffffffff16905081600360006101000a81548173ffffffffffffffffffffffffffffffffffffffff021916908373ffffffffffffffffffffffffffffffffffffffff1602179055508173ffffffffffffffffffffffffffffffffffffffff168173ffffffffffffffffffffffffffffffffffffffff167f8be0079c531659141344cd1fd0a4f28419497f9722a3daafe3b4186f6b6457e060405160405180910390a35050565b600081600001549050919050565b6001816000016000828254019250508190555050565b600073ffffffffffffffffffffffffffffffffffffffff168473ffffffffffffffffffffffffffffffffffffffff1603620006a1576040517f08c379a0000000000000000000000000000000000000000000000000000000008152600401620006989062000bfa565b60405180910390fd5b6000620006b36200053d60201b60201c565b90506000620006c8856200081660201b60201c565b90506000620006dd856200081660201b60201c565b9050620006f6836000898585896200089760201b60201c565b8460008088815260200190815260200160002060008973ffffffffffffffffffffffffffffffffffffffff1673ffffffffffffffffffffffffffffffffffffffff168152602001908152602001600020600082825462000757919062000c55565b925050819055508673ffffffffffffffffffffffffffffffffffffffff16600073ffffffffffffffffffffffffffffffffffffffff168473ffffffffffffffffffffffffffffffffffffffff167fc3d58168c5ae7397731d063d5bbf3d657854427343f4c083240f7aacaa2d0f628989604051620007d792919062000cc3565b60405180910390a4620007f6836000898585896200089f60201b60201c565b6200080d83600089898989620008a760201b60201c565b50505050505050565b60606000600167ffffffffffffffff81111562000838576200083762000cf0565b5b604051908082528060200260200182016040528015620008675781602001602082028036833780820191505090505b509050828160008151811062000882576200088162000d1f565b5b60200260200101818152505080915050919050565b505050505050565b505050505050565b620008d38473ffffffffffffffffffffffffffffffffffffffff1662000aa060201b62000d411760201c565b1562000a98578373ffffffffffffffffffffffffffffffffffffffff1663f23a6e6187878686866040518663ffffffff1660e01b81526004016200091c95949392919062000e37565b6020604051808303816000875af19250505080156200095b57506040513d601f19601f8201168201806040525081019062000958919062000f07565b60015b62000a0c576200096a62000f46565b806308c379a003620009cd57506200098162000fa1565b806200098e5750620009cf565b806040517f08c379a0000000000000000000000000000000000000000000000000000000008152600401620009c4919062001088565b60405180910390fd5b505b6040517f08c379a000000000000000000000000000000000000000000000000000000000815260040162000a039062001122565b60405180910390fd5b63f23a6e6160e01b7bffffffffffffffffffffffffffffffffffffffffffffffffffffffff1916817bffffffffffffffffffffffffffffffffffffffffffffffffffffffff19161462000a96576040517f08c379a000000000000000000000000000000000000000000000000000000000815260040162000a8d90620011ba565b60405180910390fd5b505b505050505050565b6000808273ffffffffffffffffffffffffffffffffffffffff163b119050919050565b82805462000ad1906200120b565b90600052602060002090601f01602090048101928262000af5576000855562000b41565b82601f1062000b1057805160ff191683800117855562000b41565b8280016001018555821562000b41579182015b8281111562000b4057825182559160200191906001019062000b23565b5b50905062000b50919062000b54565b5090565b5b8082111562000b6f57600081600090555060010162000b55565b5090565b600082825260208201905092915050565b7f455243313135353a206d696e7420746f20746865207a65726f2061646472657360008201527f7300000000000000000000000000000000000000000000000000000000000000602082015250565b600062000be260218362000b73565b915062000bef8262000b84565b604082019050919050565b6000602082019050818103600083015262000c158162000bd3565b9050919050565b6000819050919050565b7f4e487b7100000000000000000000000000000000000000000000000000000000600052601160045260246000fd5b600062000c628262000c1c565b915062000c6f8362000c1c565b9250827fffffffffffffffffffffffffffffffffffffffffffffffffffffffffffffffff0382111562000ca75762000ca662000c26565b5b828201905092915050565b62000cbd8162000c1c565b82525050565b600060408201905062000cda600083018562000cb2565b62000ce9602083018462000cb2565b9392505050565b7f4e487b7100000000000000000000000000000000000000000000000000000000600052604160045260246000fd5b7f4e487b7100000000000000000000000000000000000000000000000000000000600052603260045260246000fd5b600073ffffffffffffffffffffffffffffffffffffffff82169050919050565b600062000d7b8262000d4e565b9050919050565b62000d8d8162000d6e565b82525050565b600081519050919050565b600082825260208201905092915050565b60005b8381101562000dcf57808201518184015260208101905062000db2565b8381111562000ddf576000848401525b50505050565b6000601f19601f8301169050919050565b600062000e038262000d93565b62000e0f818562000d9e565b935062000e2181856020860162000daf565b62000e2c8162000de5565b840191505092915050565b600060a08201905062000e4e600083018862000d82565b62000e5d602083018762000d82565b62000e6c604083018662000cb2565b62000e7b606083018562000cb2565b818103608083015262000e8f818462000df6565b90509695505050505050565b6000604051905090565b600080fd5b60007fffffffff0000000000000000000000000000000000000000000000000000000082169050919050565b62000ee18162000eaa565b811462000eed57600080fd5b50565b60008151905062000f018162000ed6565b92915050565b60006020828403121562000f205762000f1f62000ea5565b5b600062000f308482850162000ef0565b91505092915050565b60008160e01c9050919050565b600060033d111562000f685760046000803e62000f6560005162000f39565b90505b90565b62000f768262000de5565b810181811067ffffffffffffffff8211171562000f985762000f9762000cf0565b5b80604052505050565b600060443d10620010395762000fb662000e9b565b60043d036004823e80513d602482011167ffffffffffffffff8211171562000fe057505062001039565b808201805167ffffffffffffffff81111562001000575050505062001039565b80602083010160043d0385018111156200101f57505050505062001039565b620010308260200185018662000f6b565b82955050505050505b90565b600081519050919050565b600062001054826200103c565b62001060818562000b73565b93506200107281856020860162000daf565b6200107d8162000de5565b840191505092915050565b60006020820190508181036000830152620010a4818462001047565b905092915050565b7f455243313135353a207472616e7366657220746f206e6f6e204552433131353560008201527f526563656976657220696d706c656d656e746572000000000000000000000000602082015250565b60006200110a60348362000b73565b91506200111782620010ac565b604082019050919050565b600060208201905081810360008301526200113d81620010fb565b9050919050565b7f455243313135353a204552433131353552656365697665722072656a6563746560008201527f6420746f6b656e73000000000000000000000000000000000000000000000000602082015250565b6000620011a260288362000b73565b9150620011af8262001144565b604082019050919050565b60006020820190508181036000830152620011d58162001193565b9050919050565b7f4e487b7100000000000000000000000000000000000000000000000000000000600052602260045260246000fd5b600060028204905060018216806200122457607f821691505b6020821081036200123a5762001239620011dc565b5b50919050565b613c5780620012506000396000f3fe608060405234801561001057600080fd5b506004361061010a5760003560e01c80636b20c454116100a2578063a22cb46511610071578063a22cb4651461029f578063e985e9c5146102bb578063f242432a146102eb578063f2fde38b14610307578063f5298aca146103235761010a565b80636b20c4541461023f578063715018a61461025b578063731133e9146102655780638da5cb5b146102815761010a565b80631a796634116100de5780631a796634146101bb5780631f7fdffa146101d75780632eb2c2d6146101f35780634e1273f41461020f5761010a565b8062fdd58e1461010f57806301ffc9a71461013f57806302fe53051461016f5780630e89341c1461018b575b600080fd5b61012960048036038101906101249190612451565b61033f565b60405161013691906124a0565b60405180910390f35b61015960048036038101906101549190612513565b610407565b604051610166919061255b565b60405180910390f35b610189600480360381019061018491906126bc565b6104e9565b005b6101a560048036038101906101a09190612705565b610571565b6040516101b291906127ba565b60405180910390f35b6101d560048036038101906101d0919061287d565b610605565b005b6101f160048036038101906101ec91906129dc565b610619565b005b61020d60048036038101906102089190612a97565b6106a7565b005b61022960048036038101906102249190612c29565b610748565b6040516102369190612d5f565b60405180910390f35b61025960048036038101906102549190612d81565b610861565b005b6102636108fe565b005b61027f600480360381019061027a9190612e0c565b610986565b005b610289610a14565b6040516102969190612e9e565b60405180910390f35b6102b960048036038101906102b49190612ee5565b610a3e565b005b6102d560048036038101906102d09190612f25565b610a54565b6040516102e2919061255b565b60405180910390f35b6103056004803603810190610300919061287d565b610ae8565b005b610321600480360381019061031c9190612f65565b610b89565b005b61033d60048036038101906103389190612f92565b610c80565b005b60008073ffffffffffffffffffffffffffffffffffffffff168373ffffffffffffffffffffffffffffffffffffffff16036103af576040517f08c379a00000000000000000000000000000000000000000000000000000000081526004016103a690613057565b60405180910390fd5b60008083815260200190815260200160002060008473ffffffffffffffffffffffffffffffffffffffff1673ffffffffffffffffffffffffffffffffffffffff16815260200190815260200160002054905092915050565b60007fd9b67a26000000000000000000000000000000000000000000000000000000007bffffffffffffffffffffffffffffffffffffffffffffffffffffffff1916827bffffffffffffffffffffffffffffffffffffffffffffffffffffffff191614806104d257507f0e89341c000000000000000000000000000000000000000000000000000000007bffffffffffffffffffffffffffffffffffffffffffffffffffffffff1916827bffffffffffffffffffffffffffffffffffffffffffffffffffffffff1916145b806104e257506104e182610d64565b5b9050919050565b6104f1610dce565b73ffffffffffffffffffffffffffffffffffffffff1661050f610a14565b73ffffffffffffffffffffffffffffffffffffffff1614610565576040517f08c379a000000000000000000000000000000000000000000000000000000000815260040161055c906130c3565b60405180910390fd5b61056e81610dd6565b50565b60606002805461058090613112565b80601f01602080910402602001604051908101604052809291908181526020018280546105ac90613112565b80156105f95780601f106105ce576101008083540402835291602001916105f9565b820191906000526020600020905b8154815290600101906020018083116105dc57829003601f168201915b50505050509050919050565b6106128585858585610df0565b5050505050565b610621610dce565b73ffffffffffffffffffffffffffffffffffffffff1661063f610a14565b73ffffffffffffffffffffffffffffffffffffffff1614610695576040517f08c379a000000000000000000000000000000000000000000000000000000000815260040161068c906130c3565b60405180910390fd5b6106a18484848461108b565b50505050565b6106af610dce565b73ffffffffffffffffffffffffffffffffffffffff168573ffffffffffffffffffffffffffffffffffffffff1614806106f557506106f4856106ef610dce565b610a54565b5b610734576040517f08c379a000000000000000000000000000000000000000000000000000000000815260040161072b906131b5565b60405180910390fd5b61074185858585856112b7565b5050505050565b6060815183511461078e576040517f08c379a000000000000000000000000000000000000000000000000000000000815260040161078590613247565b60405180910390fd5b6000835167ffffffffffffffff8111156107ab576107aa612591565b5b6040519080825280602002602001820160405280156107d95781602001602082028036833780820191505090505b50905060005b8451811015610856576108268582815181106107fe576107fd613267565b5b602002602001015185838151811061081957610818613267565b5b602002602001015161033f565b82828151811061083957610838613267565b5b6020026020010181815250508061084f906132c5565b90506107df565b508091505092915050565b610869610dce565b73ffffffffffffffffffffffffffffffffffffffff168373ffffffffffffffffffffffffffffffffffffffff1614806108af57506108ae836108a9610dce565b610a54565b5b6108ee576040517f08c379a00000000000000000000000000000000000000000000000000000000081526004016108e59061337f565b60405180910390fd5b6108f98383836115d8565b505050565b610906610dce565b73ffffffffffffffffffffffffffffffffffffffff16610924610a14565b73ffffffffffffffffffffffffffffffffffffffff161461097a576040517f08c379a0000000000000000000000000000000000000000000000000000000008152600401610971906130c3565b60405180910390fd5b61098460006118a6565b565b61098e610dce565b73ffffffffffffffffffffffffffffffffffffffff166109ac610a14565b73ffffffffffffffffffffffffffffffffffffffff1614610a02576040517f08c379a00000000000000000000000000000000000000000000000000000000081526004016109f9906130c3565b60405180910390fd5b610a0e8484848461196c565b50505050565b6000600360009054906101000a900473ffffffffffffffffffffffffffffffffffffffff16905090565b610a50610a49610dce565b8383611b1c565b5050565b6000600160008473ffffffffffffffffffffffffffffffffffffffff1673ffffffffffffffffffffffffffffffffffffffff16815260200190815260200160002060008373ffffffffffffffffffffffffffffffffffffffff1673ffffffffffffffffffffffffffffffffffffffff16815260200190815260200160002060009054906101000a900460ff16905092915050565b610af0610dce565b73ffffffffffffffffffffffffffffffffffffffff168573ffffffffffffffffffffffffffffffffffffffff161480610b365750610b3585610b30610dce565b610a54565b5b610b75576040517f08c379a0000000000000000000000000000000000000000000000000000000008152600401610b6c9061337f565b60405180910390fd5b610b828585858585610df0565b5050505050565b610b91610dce565b73ffffffffffffffffffffffffffffffffffffffff16610baf610a14565b73ffffffffffffffffffffffffffffffffffffffff1614610c05576040517f08c379a0000000000000000000000000000000000000000000000000000000008152600401610bfc906130c3565b60405180910390fd5b600073ffffffffffffffffffffffffffffffffffffffff168173ffffffffffffffffffffffffffffffffffffffff1603610c74576040517f08c379a0000000000000000000000000000000000000000000000000000000008152600401610c6b90613411565b60405180910390fd5b610c7d816118a6565b50565b610c88610dce565b73ffffffffffffffffffffffffffffffffffffffff168373ffffffffffffffffffffffffffffffffffffffff161480610cce5750610ccd83610cc8610dce565b610a54565b5b610d0d576040517f08c379a0000000000000000000000000000000000000000000000000000000008152600401610d049061337f565b60405180910390fd5b610d18838383611c88565b505050565b600081600001549050919050565b6001816000016000828254019250508190555050565b6000808273ffffffffffffffffffffffffffffffffffffffff163b119050919050565b60007f01ffc9a7000000000000000000000000000000000000000000000000000000007bffffffffffffffffffffffffffffffffffffffffffffffffffffffff1916827bffffffffffffffffffffffffffffffffffffffffffffffffffffffff1916149050919050565b600033905090565b8060029080519060200190610dec929190612306565b5050565b600073ffffffffffffffffffffffffffffffffffffffff168473ffffffffffffffffffffffffffffffffffffffff1603610e5f576040517f08c379a0000000000000000000000000000000000000000000000000000000008152600401610e56906134a3565b60405180910390fd5b6000610e69610dce565b90506000610e7685611ece565b90506000610e8385611ece565b9050610e93838989858589611f48565b600080600088815260200190815260200160002060008a73ffffffffffffffffffffffffffffffffffffffff1673ffffffffffffffffffffffffffffffffffffffff16815260200190815260200160002054905085811015610f2a576040517f08c379a0000000000000000000000000000000000000000000000000000000008152600401610f2190613535565b60405180910390fd5b85810360008089815260200190815260200160002060008b73ffffffffffffffffffffffffffffffffffffffff1673ffffffffffffffffffffffffffffffffffffffff168152602001908152602001600020819055508560008089815260200190815260200160002060008a73ffffffffffffffffffffffffffffffffffffffff1673ffffffffffffffffffffffffffffffffffffffff1681526020019081526020016000206000828254610fdf9190613555565b925050819055508773ffffffffffffffffffffffffffffffffffffffff168973ffffffffffffffffffffffffffffffffffffffff168573ffffffffffffffffffffffffffffffffffffffff167fc3d58168c5ae7397731d063d5bbf3d657854427343f4c083240f7aacaa2d0f628a8a60405161105c9291906135ab565b60405180910390a4611072848a8a86868a611f50565b611080848a8a8a8a8a611f58565b505050505050505050565b600073ffffffffffffffffffffffffffffffffffffffff168473ffffffffffffffffffffffffffffffffffffffff16036110fa576040517f08c379a00000000000000000000000000000000000000000000000000000000081526004016110f190613646565b60405180910390fd5b815183511461113e576040517f08c379a0000000000000000000000000000000000000000000000000000000008152600401611135906136d8565b60405180910390fd5b6000611148610dce565b905061115981600087878787611f48565b60005b84518110156112125783818151811061117857611177613267565b5b602002602001015160008087848151811061119657611195613267565b5b6020026020010151815260200190815260200160002060008873ffffffffffffffffffffffffffffffffffffffff1673ffffffffffffffffffffffffffffffffffffffff16815260200190815260200160002060008282546111f89190613555565b92505081905550808061120a906132c5565b91505061115c565b508473ffffffffffffffffffffffffffffffffffffffff16600073ffffffffffffffffffffffffffffffffffffffff168273ffffffffffffffffffffffffffffffffffffffff167f4a39dc06d4c0dbc64b70af90fd698a233a518aa5d07e595d983b8c0526c8f7fb878760405161128a9291906136f8565b60405180910390a46112a181600087878787611f50565b6112b08160008787878761212f565b5050505050565b81518351146112fb576040517f08c379a00000000000000000000000000000000000000000000000000000000081526004016112f2906136d8565b60405180910390fd5b600073ffffffffffffffffffffffffffffffffffffffff168473ffffffffffffffffffffffffffffffffffffffff160361136a576040517f08c379a0000000000000000000000000000000000000000000000000000000008152600401611361906134a3565b60405180910390fd5b6000611374610dce565b9050611384818787878787611f48565b60005b84518110156115355760008582815181106113a5576113a4613267565b5b6020026020010151905060008583815181106113c4576113c3613267565b5b60200260200101519050600080600084815260200190815260200160002060008b73ffffffffffffffffffffffffffffffffffffffff1673ffffffffffffffffffffffffffffffffffffffff16815260200190815260200160002054905081811015611465576040517f08c379a000000000000000000000000000000000000000000000000000000000815260040161145c90613535565b60405180910390fd5b81810360008085815260200190815260200160002060008c73ffffffffffffffffffffffffffffffffffffffff1673ffffffffffffffffffffffffffffffffffffffff168152602001908152602001600020819055508160008085815260200190815260200160002060008b73ffffffffffffffffffffffffffffffffffffffff1673ffffffffffffffffffffffffffffffffffffffff168152602001908152602001600020600082825461151a9190613555565b925050819055505050508061152e906132c5565b9050611387565b508473ffffffffffffffffffffffffffffffffffffffff168673ffffffffffffffffffffffffffffffffffffffff168273ffffffffffffffffffffffffffffffffffffffff167f4a39dc06d4c0dbc64b70af90fd698a233a518aa5d07e595d983b8c0526c8f7fb87876040516115ac9291906136f8565b60405180910390a46115c2818787878787611f50565b6115d081878787878761212f565b505050505050565b600073ffffffffffffffffffffffffffffffffffffffff168373ffffffffffffffffffffffffffffffffffffffff1603611647576040517f08c379a000000000000000000000000000000000000000000000000000000000815260040161163e906137a1565b60405180910390fd5b805182511461168b576040517f08c379a0000000000000000000000000000000000000000000000000000000008152600401611682906136d8565b60405180910390fd5b6000611695610dce565b90506116b581856000868660405180602001604052806000815250611f48565b60005b83518110156118025760008482815181106116d6576116d5613267565b5b6020026020010151905060008483815181106116f5576116f4613267565b5b60200260200101519050600080600084815260200190815260200160002060008973ffffffffffffffffffffffffffffffffffffffff1673ffffffffffffffffffffffffffffffffffffffff16815260200190815260200160002054905081811015611796576040517f08c379a000000000000000000000000000000000000000000000000000000000815260040161178d90613833565b60405180910390fd5b81810360008085815260200190815260200160002060008a73ffffffffffffffffffffffffffffffffffffffff1673ffffffffffffffffffffffffffffffffffffffff1681526020019081526020016000208190555050505080806117fa906132c5565b9150506116b8565b50600073ffffffffffffffffffffffffffffffffffffffff168473ffffffffffffffffffffffffffffffffffffffff168273ffffffffffffffffffffffffffffffffffffffff167f4a39dc06d4c0dbc64b70af90fd698a233a518aa5d07e595d983b8c0526c8f7fb868660405161187a9291906136f8565b60405180910390a46118a081856000868660405180602001604052806000815250611f50565b50505050565b6000600360009054906101000a900473ffffffffffffffffffffffffffffffffffffffff16905081600360006101000a81548173ffffffffffffffffffffffffffffffffffffffff021916908373ffffffffffffffffffffffffffffffffffffffff1602179055508173ffffffffffffffffffffffffffffffffffffffff168173ffffffffffffffffffffffffffffffffffffffff167f8be0079c531659141344cd1fd0a4f28419497f9722a3daafe3b4186f6b6457e060405160405180910390a35050565b600073ffffffffffffffffffffffffffffffffffffffff168473ffffffffffffffffffffffffffffffffffffffff16036119db576040517f08c379a00000000000000000000000000000000000000000000000000000000081526004016119d290613646565b60405180910390fd5b60006119e5610dce565b905060006119f285611ece565b905060006119ff85611ece565b9050611a1083600089858589611f48565b8460008088815260200190815260200160002060008973ffffffffffffffffffffffffffffffffffffffff1673ffffffffffffffffffffffffffffffffffffffff1681526020019081526020016000206000828254611a6f9190613555565b925050819055508673ffffffffffffffffffffffffffffffffffffffff16600073ffffffffffffffffffffffffffffffffffffffff168473ffffffffffffffffffffffffffffffffffffffff167fc3d58168c5ae7397731d063d5bbf3d657854427343f4c083240f7aacaa2d0f628989604051611aed9291906135ab565b60405180910390a4611b0483600089858589611f50565b611b1383600089898989611f58565b50505050505050565b8173ffffffffffffffffffffffffffffffffffffffff168373ffffffffffffffffffffffffffffffffffffffff1603611b8a576040517f08c379a0000000000000000000000000000000000000000000000000000000008152600401611b81906138c5565b60405180910390fd5b80600160008573ffffffffffffffffffffffffffffffffffffffff1673ffffffffffffffffffffffffffffffffffffffff16815260200190815260200160002060008473ffffffffffffffffffffffffffffffffffffffff1673ffffffffffffffffffffffffffffffffffffffff16815260200190815260200160002060006101000a81548160ff0219169083151502179055508173ffffffffffffffffffffffffffffffffffffffff168373ffffffffffffffffffffffffffffffffffffffff167f17307eab39ab6107e8899845ad3d59bd9653f200f220920489ca2b5937696c3183604051611c7b919061255b565b60405180910390a3505050565b600073ffffffffffffffffffffffffffffffffffffffff168373ffffffffffffffffffffffffffffffffffffffff1603611cf7576040517f08c379a0000000000000000000000000000000000000000000000000000000008152600401611cee906137a1565b60405180910390fd5b6000611d01610dce565b90506000611d0e84611ece565b90506000611d1b84611ece565b9050611d3b83876000858560405180602001604052806000815250611f48565b600080600087815260200190815260200160002060008873ffffffffffffffffffffffffffffffffffffffff1673ffffffffffffffffffffffffffffffffffffffff16815260200190815260200160002054905084811015611dd2576040517f08c379a0000000000000000000000000000000000000000000000000000000008152600401611dc990613833565b60405180910390fd5b84810360008088815260200190815260200160002060008973ffffffffffffffffffffffffffffffffffffffff1673ffffffffffffffffffffffffffffffffffffffff16815260200190815260200160002081905550600073ffffffffffffffffffffffffffffffffffffffff168773ffffffffffffffffffffffffffffffffffffffff168573ffffffffffffffffffffffffffffffffffffffff167fc3d58168c5ae7397731d063d5bbf3d657854427343f4c083240f7aacaa2d0f628989604051611e9f9291906135ab565b60405180910390a4611ec584886000868660405180602001604052806000815250611f50565b50505050505050565b60606000600167ffffffffffffffff811115611eed57611eec612591565b5b604051908082528060200260200182016040528015611f1b5781602001602082028036833780820191505090505b5090508281600081518110611f3357611f32613267565b5b60200260200101818152505080915050919050565b505050505050565b505050505050565b611f778473ffffffffffffffffffffffffffffffffffffffff16610d41565b15612127578373ffffffffffffffffffffffffffffffffffffffff1663f23a6e6187878686866040518663ffffffff1660e01b8152600401611fbd95949392919061393a565b6020604051808303816000875af1925050508015611ff957506040513d601f19601f82011682018060405250810190611ff691906139a9565b60015b61209e576120056139e3565b806308c379a0036120615750612019613a05565b806120245750612063565b806040517f08c379a000000000000000000000000000000000000000000000000000000000815260040161205891906127ba565b60405180910390fd5b505b6040517f08c379a000000000000000000000000000000000000000000000000000000000815260040161209590613b07565b60405180910390fd5b63f23a6e6160e01b7bffffffffffffffffffffffffffffffffffffffffffffffffffffffff1916817bffffffffffffffffffffffffffffffffffffffffffffffffffffffff191614612125576040517f08c379a000000000000000000000000000000000000000000000000000000000815260040161211c90613b99565b60405180910390fd5b505b505050505050565b61214e8473ffffffffffffffffffffffffffffffffffffffff16610d41565b156122fe578373ffffffffffffffffffffffffffffffffffffffff1663bc197c8187878686866040518663ffffffff1660e01b8152600401612194959493929190613bb9565b6020604051808303816000875af19250505080156121d057506040513d601f19601f820116820180604052508101906121cd91906139a9565b60015b612275576121dc6139e3565b806308c379a00361223857506121f0613a05565b806121fb575061223a565b806040517f08c379a000000000000000000000000000000000000000000000000000000000815260040161222f91906127ba565b60405180910390fd5b505b6040517f08c379a000000000000000000000000000000000000000000000000000000000815260040161226c90613b07565b60405180910390fd5b63bc197c8160e01b7bffffffffffffffffffffffffffffffffffffffffffffffffffffffff1916817bffffffffffffffffffffffffffffffffffffffffffffffffffffffff1916146122fc576040517f08c379a00000000000000000000000000000000000000000000000000000000081526004016122f390613b99565b60405180910390fd5b505b505050505050565b82805461231290613112565b90600052602060002090601f016020900481019282612334576000855561237b565b82601f1061234d57805160ff191683800117855561237b565b8280016001018555821561237b579182015b8281111561237a57825182559160200191906001019061235f565b5b509050612388919061238c565b5090565b5b808211156123a557600081600090555060010161238d565b5090565b6000604051905090565b600080fd5b600080fd5b600073ffffffffffffffffffffffffffffffffffffffff82169050919050565b60006123e8826123bd565b9050919050565b6123f8816123dd565b811461240357600080fd5b50565b600081359050612415816123ef565b92915050565b6000819050919050565b61242e8161241b565b811461243957600080fd5b50565b60008135905061244b81612425565b92915050565b60008060408385031215612468576124676123b3565b5b600061247685828601612406565b92505060206124878582860161243c565b9150509250929050565b61249a8161241b565b82525050565b60006020820190506124b56000830184612491565b92915050565b60007fffffffff0000000000000000000000000000000000000000000000000000000082169050919050565b6124f0816124bb565b81146124fb57600080fd5b50565b60008135905061250d816124e7565b92915050565b600060208284031215612529576125286123b3565b5b6000612537848285016124fe565b91505092915050565b60008115159050919050565b61255581612540565b82525050565b6000602082019050612570600083018461254c565b92915050565b600080fd5b600080fd5b6000601f19601f8301169050919050565b7f4e487b7100000000000000000000000000000000000000000000000000000000600052604160045260246000fd5b6125c982612580565b810181811067ffffffffffffffff821117156125e8576125e7612591565b5b80604052505050565b60006125fb6123a9565b905061260782826125c0565b919050565b600067ffffffffffffffff82111561262757612626612591565b5b61263082612580565b9050602081019050919050565b82818337600083830152505050565b600061265f61265a8461260c565b6125f1565b90508281526020810184848401111561267b5761267a61257b565b5b61268684828561263d565b509392505050565b600082601f8301126126a3576126a2612576565b5b81356126b384826020860161264c565b91505092915050565b6000602082840312156126d2576126d16123b3565b5b600082013567ffffffffffffffff8111156126f0576126ef6123b8565b5b6126fc8482850161268e565b91505092915050565b60006020828403121561271b5761271a6123b3565b5b60006127298482850161243c565b91505092915050565b600081519050919050565b600082825260208201905092915050565b60005b8381101561276c578082015181840152602081019050612751565b8381111561277b576000848401525b50505050565b600061278c82612732565b612796818561273d565b93506127a681856020860161274e565b6127af81612580565b840191505092915050565b600060208201905081810360008301526127d48184612781565b905092915050565b600067ffffffffffffffff8211156127f7576127f6612591565b5b61280082612580565b9050602081019050919050565b600061282061281b846127dc565b6125f1565b90508281526020810184848401111561283c5761283b61257b565b5b61284784828561263d565b509392505050565b600082601f83011261286457612863612576565b5b813561287484826020860161280d565b91505092915050565b600080600080600060a08688031215612899576128986123b3565b5b60006128a788828901612406565b95505060206128b888828901612406565b94505060406128c98882890161243c565b93505060606128da8882890161243c565b925050608086013567ffffffffffffffff8111156128fb576128fa6123b8565b5b6129078882890161284f565b9150509295509295909350565b600067ffffffffffffffff82111561292f5761292e612591565b5b602082029050602081019050919050565b600080fd5b600061295861295384612914565b6125f1565b9050808382526020820190506020840283018581111561297b5761297a612940565b5b835b818110156129a45780612990888261243c565b84526020840193505060208101905061297d565b5050509392505050565b600082601f8301126129c3576129c2612576565b5b81356129d3848260208601612945565b91505092915050565b600080600080608085870312156129f6576129f56123b3565b5b6000612a0487828801612406565b945050602085013567ffffffffffffffff811115612a2557612a246123b8565b5b612a31878288016129ae565b935050604085013567ffffffffffffffff811115612a5257612a516123b8565b5b612a5e878288016129ae565b925050606085013567ffffffffffffffff811115612a7f57612a7e6123b8565b5b612a8b8782880161284f565b91505092959194509250565b600080600080600060a08688031215612ab357612ab26123b3565b5b6000612ac188828901612406565b9550506020612ad288828901612406565b945050604086013567ffffffffffffffff811115612af357612af26123b8565b5b612aff888289016129ae565b935050606086013567ffffffffffffffff811115612b2057612b1f6123b8565b5b612b2c888289016129ae565b925050608086013567ffffffffffffffff811115612b4d57612b4c6123b8565b5b612b598882890161284f565b9150509295509295909350565b600067ffffffffffffffff821115612b8157612b80612591565b5b602082029050602081019050919050565b6000612ba5612ba084612b66565b6125f1565b90508083825260208201905060208402830185811115612bc857612bc7612940565b5b835b81811015612bf15780612bdd8882612406565b845260208401935050602081019050612bca565b5050509392505050565b600082601f830112612c1057612c0f612576565b5b8135612c20848260208601612b92565b91505092915050565b60008060408385031215612c4057612c3f6123b3565b5b600083013567ffffffffffffffff811115612c5e57612c5d6123b8565b5b612c6a85828601612bfb565b925050602083013567ffffffffffffffff811115612c8b57612c8a6123b8565b5b612c97858286016129ae565b9150509250929050565b600081519050919050565b600082825260208201905092915050565b6000819050602082019050919050565b612cd68161241b565b82525050565b6000612ce88383612ccd565b60208301905092915050565b6000602082019050919050565b6000612d0c82612ca1565b612d168185612cac565b9350612d2183612cbd565b8060005b83811015612d52578151612d398882612cdc565b9750612d4483612cf4565b925050600181019050612d25565b5085935050505092915050565b60006020820190508181036000830152612d798184612d01565b905092915050565b600080600060608486031215612d9a57612d996123b3565b5b6000612da886828701612406565b935050602084013567ffffffffffffffff811115612dc957612dc86123b8565b5b612dd5868287016129ae565b925050604084013567ffffffffffffffff811115612df657612df56123b8565b5b612e02868287016129ae565b9150509250925092565b60008060008060808587031215612e2657612e256123b3565b5b6000612e3487828801612406565b9450506020612e458782880161243c565b9350506040612e568782880161243c565b925050606085013567ffffffffffffffff811115612e7757612e766123b8565b5b612e838782880161284f565b91505092959194509250565b612e98816123dd565b82525050565b6000602082019050612eb36000830184612e8f565b92915050565b612ec281612540565b8114612ecd57600080fd5b50565b600081359050612edf81612eb9565b92915050565b60008060408385031215612efc57612efb6123b3565b5b6000612f0a85828601612406565b9250506020612f1b85828601612ed0565b9150509250929050565b60008060408385031215612f3c57612f3b6123b3565b5b6000612f4a85828601612406565b9250506020612f5b85828601612406565b9150509250929050565b600060208284031215612f7b57612f7a6123b3565b5b6000612f8984828501612406565b91505092915050565b600080600060608486031215612fab57612faa6123b3565b5b6000612fb986828701612406565b9350506020612fca8682870161243c565b9250506040612fdb8682870161243c565b9150509250925092565b7f455243313135353a2062616c616e636520717565727920666f7220746865207a60008201527f65726f2061646472657373000000000000000000000000000000000000000000602082015250565b6000613041602b8361273d565b915061304c82612fe5565b604082019050919050565b6000602082019050818103600083015261307081613034565b9050919050565b7f4f776e61626c653a2063616c6c6572206973206e6f7420746865206f776e6572600082015250565b60006130ad60208361273d565b91506130b882613077565b602082019050919050565b600060208201905081810360008301526130dc816130a0565b9050919050565b7f4e487b7100000000000000000000000000000000000000000000000000000000600052602260045260246000fd5b6000600282049050600182168061312a57607f821691505b60208210810361313d5761313c6130e3565b5b50919050565b7f455243313135353a207472616e736665722063616c6c6572206973206e6f742060008201527f6f776e6572206e6f7220617070726f7665640000000000000000000000000000602082015250565b600061319f60328361273d565b91506131aa82613143565b604082019050919050565b600060208201905081810360008301526131ce81613192565b9050919050565b7f455243313135353a206163636f756e747320616e6420696473206c656e67746860008201527f206d69736d617463680000000000000000000000000000000000000000000000602082015250565b600061323160298361273d565b915061323c826131d5565b604082019050919050565b6000602082019050818103600083015261326081613224565b9050919050565b7f4e487b7100000000000000000000000000000000000000000000000000000000600052603260045260246000fd5b7f4e487b7100000000000000000000000000000000000000000000000000000000600052601160045260246000fd5b60006132d08261241b565b91507fffffffffffffffffffffffffffffffffffffffffffffffffffffffffffffffff820361330257613301613296565b5b600182019050919050565b7f455243313135353a2063616c6c6572206973206e6f74206f776e6572206e6f7260008201527f20617070726f7665640000000000000000000000000000000000000000000000602082015250565b600061336960298361273d565b91506133748261330d565b604082019050919050565b600060208201905081810360008301526133988161335c565b9050919050565b7f4f776e61626c653a206e6577206f776e657220697320746865207a65726f206160008201527f6464726573730000000000000000000000000000000000000000000000000000602082015250565b60006133fb60268361273d565b91506134068261339f565b604082019050919050565b6000602082019050818103600083015261342a816133ee565b9050919050565b7f455243313135353a207472616e7366657220746f20746865207a65726f20616460008201527f6472657373000000000000000000000000000000000000000000000000000000602082015250565b600061348d60258361273d565b915061349882613431565b604082019050919050565b600060208201905081810360008301526134bc81613480565b9050919050565b7f455243313135353a20696e73756666696369656e742062616c616e636520666f60008201527f72207472616e7366657200000000000000000000000000000000000000000000602082015250565b600061351f602a8361273d565b915061352a826134c3565b604082019050919050565b6000602082019050818103600083015261354e81613512565b9050919050565b60006135608261241b565b915061356b8361241b565b9250827fffffffffffffffffffffffffffffffffffffffffffffffffffffffffffffffff038211156135a05761359f613296565b5b828201905092915050565b60006040820190506135c06000830185612491565b6135cd6020830184612491565b9392505050565b7f455243313135353a206d696e7420746f20746865207a65726f2061646472657360008201527f7300000000000000000000000000000000000000000000000000000000000000602082015250565b600061363060218361273d565b915061363b826135d4565b604082019050919050565b6000602082019050818103600083015261365f81613623565b9050919050565b7f455243313135353a2069647320616e6420616d6f756e7473206c656e6774682060008201527f6d69736d61746368000000000000000000000000000000000000000000000000602082015250565b60006136c260288361273d565b91506136cd82613666565b604082019050919050565b600060208201905081810360008301526136f1816136b5565b9050919050565b600060408201905081810360008301526137128185612d01565b905081810360208301526137268184612d01565b90509392505050565b7f455243313135353a206275726e2066726f6d20746865207a65726f206164647260008201527f6573730000000000000000000000000000000000000000000000000000000000602082015250565b600061378b60238361273d565b91506137968261372f565b604082019050919050565b600060208201905081810360008301526137ba8161377e565b9050919050565b7f455243313135353a206275726e20616d6f756e7420657863656564732062616c60008201527f616e636500000000000000000000000000000000000000000000000000000000602082015250565b600061381d60248361273d565b9150613828826137c1565b604082019050919050565b6000602082019050818103600083015261384c81613810565b9050919050565b7f455243313135353a2073657474696e6720617070726f76616c2073746174757360008201527f20666f722073656c660000000000000000000000000000000000000000000000602082015250565b60006138af60298361273d565b91506138ba82613853565b604082019050919050565b600060208201905081810360008301526138de816138a2565b9050919050565b600081519050919050565b600082825260208201905092915050565b600061390c826138e5565b61391681856138f0565b935061392681856020860161274e565b61392f81612580565b840191505092915050565b600060a08201905061394f6000830188612e8f565b61395c6020830187612e8f565b6139696040830186612491565b6139766060830185612491565b81810360808301526139888184613901565b90509695505050505050565b6000815190506139a3816124e7565b92915050565b6000602082840312156139bf576139be6123b3565b5b60006139cd84828501613994565b91505092915050565b60008160e01c9050919050565b600060033d1115613a025760046000803e6139ff6000516139d6565b90505b90565b600060443d10613a9257613a176123a9565b60043d036004823e80513d602482011167ffffffffffffffff82111715613a3f575050613a92565b808201805167ffffffffffffffff811115613a5d5750505050613a92565b80602083010160043d038501811115613a7a575050505050613a92565b613a89826020018501866125c0565b82955050505050505b90565b7f455243313135353a207472616e7366657220746f206e6f6e204552433131353560008201527f526563656976657220696d706c656d656e746572000000000000000000000000602082015250565b6000613af160348361273d565b9150613afc82613a95565b604082019050919050565b60006020820190508181036000830152613b2081613ae4565b9050919050565b7f455243313135353a204552433131353552656365697665722072656a6563746560008201527f6420746f6b656e73000000000000000000000000000000000000000000000000602082015250565b6000613b8360288361273d565b9150613b8e82613b27565b604082019050919050565b60006020820190508181036000830152613bb281613b76565b9050919050565b600060a082019050613bce6000830188612e8f565b613bdb6020830187612e8f565b8181036040830152613bed8186612d01565b90508181036060830152613c018185612d01565b90508181036080830152613c158184613901565b9050969550505050505056fea2646970667358221220de9bb0acc3e3e102a0c1246031bda6789b87278afe433ce6d8dc90779242bc9e64736f6c634300080e0033",
  "immutableReferences": {},
  "source": "// SPDX-License-Identifier: MIT\npragma solidity ^0.8.4;\n\nimport \"@openzeppelin/contracts/token/ERC1155/ERC1155.sol\";\nimport \"@openzeppelin/contracts/access/Ownable.sol\";\nimport \"@openzeppelin/contracts/token/ERC1155/extensions/ERC1155Burnable.sol\";\nimport \"@openzeppelin/contracts/utils/Counters.sol\";\n\ncontract LandToken is ERC1155, Ownable, ERC1155Burnable {\n    using Counters for Counters.Counter;\n    Counters.Counter private _tokenIdCounter;\n    \n    constructor() ERC1155(\"\") {\n\tuint256 tokenId = _tokenIdCounter.current();\n\t_tokenIdCounter.increment();\n\t_mint(msg.sender,tokenId,100,\"A1\");\n        tokenId = _tokenIdCounter.current();\n        _tokenIdCounter.increment();\n        _mint(msg.sender,tokenId,100,\"A2\");\n        tokenId = _tokenIdCounter.current();\n        _tokenIdCounter.increment();\n        _mint(msg.sender,tokenId,100,\"A3\");\n        tokenId = _tokenIdCounter.current();\n        _tokenIdCounter.increment();\n        _mint(msg.sender,tokenId,100,\"A4\");\n        tokenId = _tokenIdCounter.current();\n        _tokenIdCounter.increment();\n        _mint(msg.sender,tokenId,100,\"A5\");\n        tokenId = _tokenIdCounter.current();\n        _tokenIdCounter.increment();\n        _mint(msg.sender,tokenId,100,\"A6\");\n        tokenId = _tokenIdCounter.current();\n        _tokenIdCounter.increment();\n        _mint(msg.sender,tokenId,100,\"A7\");\n        tokenId = _tokenIdCounter.current();\n        _tokenIdCounter.increment();\n        _mint(msg.sender,tokenId,100,\"A8\");\n        tokenId = _tokenIdCounter.current();\n        _tokenIdCounter.increment();\n        _mint(msg.sender,tokenId,100,\"A9\");\n        tokenId = _tokenIdCounter.current();\n        _tokenIdCounter.increment();\n        _mint(msg.sender,tokenId,100,\"A10\");\n    }\n\n    function transferLand(address from, address to,uint256 ldid,uint256 ld_amount,bytes memory val) public {\n\t_safeTransferFrom(from,to,ldid,ld_amount,val);\n    }\n    function setURI(string memory newuri) public onlyOwner {\n        _setURI(newuri);\n    }\n\n    function mint(address account, uint256 id, uint256 amount, bytes memory data)\n        public\n        onlyOwner\n    {\n        _mint(account, id, amount, data);\n    }\n\n    function mintBatch(address to, uint256[] memory ids, uint256[] memory amounts, bytes memory data)\n        public\n        onlyOwner\n    {\n        _mintBatch(to, ids, amounts, data);\n    }\n}\n",
  "sourcePath": "/workspace/AssetMore/contracts/LandToken.sol",
  "compiler": {
    "name": "solc",
    "version": "0.8.14+commit.80d49f37.Emscripten.clang"
  },
  "schemaVersion": "3.4.7",
  "updatedAt": "2022-06-25T08:22:09.522Z",
  "devdoc": {
    "kind": "dev",
    "methods": {
      "balanceOf(address,uint256)": {
        "details": "See {IERC1155-balanceOf}. Requirements: - `account` cannot be the zero address."
      },
      "balanceOfBatch(address[],uint256[])": {
        "details": "See {IERC1155-balanceOfBatch}. Requirements: - `accounts` and `ids` must have the same length."
      },
      "isApprovedForAll(address,address)": {
        "details": "See {IERC1155-isApprovedForAll}."
      },
      "owner()": {
        "details": "Returns the address of the current owner."
      },
      "renounceOwnership()": {
        "details": "Leaves the contract without owner. It will not be possible to call `onlyOwner` functions anymore. Can only be called by the current owner. NOTE: Renouncing ownership will leave the contract without an owner, thereby removing any functionality that is only available to the owner."
      },
      "safeBatchTransferFrom(address,address,uint256[],uint256[],bytes)": {
        "details": "See {IERC1155-safeBatchTransferFrom}."
      },
      "safeTransferFrom(address,address,uint256,uint256,bytes)": {
        "details": "See {IERC1155-safeTransferFrom}."
      },
      "setApprovalForAll(address,bool)": {
        "details": "See {IERC1155-setApprovalForAll}."
      },
      "supportsInterface(bytes4)": {
        "details": "See {IERC165-supportsInterface}."
      },
      "transferOwnership(address)": {
        "details": "Transfers ownership of the contract to a new account (`newOwner`). Can only be called by the current owner."
      },
      "uri(uint256)": {
        "details": "See {IERC1155MetadataURI-uri}. This implementation returns the same URI for *all* token types. It relies on the token type ID substitution mechanism https://eips.ethereum.org/EIPS/eip-1155#metadata[defined in the EIP]. Clients calling this function must replace the `\\{id\\}` substring with the actual token type ID."
      }
    },
    "version": 1
  },
  "userdoc": {
    "kind": "user",
    "methods": {},
    "version": 1
  }
}